:02000002D0002C
:1040000000400D00E4560D00000006000C00050104
:084010000401DE0500000000C0
:0440180008530D003C
:10401C0009480A49884208B505D0094A824202D0AB
:10402C00121A01F027F90748074A0021121A01F069
:10403C002CF9014808BD00BF60E3032054560D0065
:10404C00C8E30320C8E30320F0E7032070B500F0B9
:10405C0067FB074C074BE41AA40800251E46A54233
:10406C0004D056F8253098470135F8E770BD00BFED
:10407C0044560D000C560D0000F013B808B500F0B6
:10408C0014F8BDE8084000F00DBB00F0CDB900F00D
:10409C00CBB90078B0FA80F0400970470123037067
:1040AC0070470121072000F0E3BE08B5012107206D
:1040BC0000F0EFFE642000F0B7FA0720002100F0BA
:1040CC00E8FE6420BDE8084000F0AEBA00F010B87D
:1040DC0008B5024B1B689B68019308BD680203007E
:1040EC0008B5024B1B68DB68019308BD680203002E
:1040FC0008B5024B1B681B68019308BD2C0203001A
:10410C0008B5024B1B689B68019308BD2C02030089
:10411C0008B5024B1B68DB68019308BD2C02030039
:10412C0008B5024B1B681B69019308BD2C020300E8
:10413C0008B5024B1B68DB69019308BD3002030014
:10414C0008B5024B1B681B6A019308BD30020300C3
:10415C0008B5024B1B685B68019308BD180203008D
:10416C0008B5024B1B685B69019308BD180203007C
:10417C0008B5024B1B689B68019308BD48020300FD
:10418C0008B5024B1B681B69019308BD480203006C
:10419C0008B5024B1B685B69019308BD480203001C
:1041AC0008B5024B1B685B6C019308BD4802030009
:1041BC0008B5024B1B689B6C019308BD48020300B9
:1041CC0008B5024B1B685B69019308BD64020300D0
:1041DC0008B5024B1B681B68019308BD3C02030029
:1041EC0008B5024B1B68DB68019308BD3C02030059
:1041FC0008B5024B1B681B69019308BD3C02030008
:10420C0008B5024B1B685B69019308BD3C020300B7
:10421C0008B5024B1B689B69019308BD3C02030067
:10422C0008B5024B1B68DB69019308BD3C02030017
:10423C0008B5024B1B681B6A019308BD3C020300C6
:10424C0008B5024B1B689B6A019308BD3C02030036
:10425C0008B5024B1B681B6A019308BD28020300BA
:10426C0008B5024B1B685B6A019308BD280203006A
:10427C0008B5024B1B689B6A019308BD280203001A
:10428C0008B5024B1B68DB6A019308BD28020300CA
:10429C0008B5024B1B681B6B019308BD2802030079
:1042AC0008B5024B1B685B6B019308BD2802030029
:1042BC0008B5024B1B681B6C019308BD2802030058
:1042CC0008B5024B1B681B68019308BD4C02030028
:1042DC0008B5024B1B681B69019308BD4C02030017
:1042EC0008B5024B1B685B69019308BD4C020300C7
:1042FC0008B5024B1B689B69019308BD4C02030077
:10430C0008B5024B1B68DB69019308BD4C02030026
:10431C0008B5024B1B681B6A019308BD4C020300D5
:10432C0008B5024B1B685B68019308BD20020300B3
:10433C0008B5024B1B685B69019308BD20020300A2
:10434C0008B5034B1B68D3F88830019308BD0000F7
:10435C002002030008B5034B1B68D3F8943001937B
:10436C0008BD00002002030008B5024B1B685B6807
:10437C00019308BD4002030008B5024B1B689B6803
:10438C00019308BD4002030008B5024B1B68DB68B3
:10439C00019308BD4002030008B5024B1B681B6962
:1043AC00019308BD4002030008B5024B1B685B6912
:1043BC00019308BD4002030008B5024B1B689B69C2
:1043CC00019308BD4002030008B5024B1B68DB6972
:1043DC00019308BD4002030008B5024B1B681B6A21
:1043EC00019308BD4002030008B5024B1B681B6B10
:1043FC00019308BD4002030008B5024B1B685B6BC0
:10440C00019308BD4002030008B5024B1B68DB6B2F
:10441C00019308BD4402030008B5024B1B681B68DE
:10442C00019308BD1C02030008B5024B1B685B68B6
:10443C00019308BD1C020300002211464068FFF7DF
:10444C00CBBF002211464068FFF7D6BF0022406860
:10445C00FFF7CABF002281F001014068FFF7B4BF2B
:10446C0000231A4619464068FFF7A6BF00231A46D8
:10447C0019464068FFF798BF002211464068FFF7C5
:10448C008BBF002211464068FFF776BF0022022145
:10449C004068FFF779BF00231A464068FFF764BFF6
:1044AC00024B03225A60024A1A607047CCE3032085
:1044BC0024530D00704710B50C21044600F070FD1C
:1044CC00204610BD10B5054B03600446017108462B
:1044DC00FFF72EFE0023A360204610BD58530D009D
:1044EC000079FFF72DBE10B50446006818B1FFF730
:1044FC009BFF0023236010BD10B50446FFF7F3FFAC
:10450C00204610BD10B5094C00204FF6FF732060FB
:10451C00A080A07120816381FFF702FF2046044A2E
:10452C000449BDE8104000F02DBD00BFD4E30320CA
:10453C00C8E3032005450D0010B50446006808B11A
:10454C00FFF736FE204610BD10B5064C0023204662
:10455C002360FFF725FE2046034A0449BDE81040BE
:10456C0000F010BDE0E30320C8E3032045450D0037
:10457C00F8B506460D468F180024BD420CD03368A2
:10458C0015F8011B9B6830469847002801DB044452
:10459C00F3E7002C08BF04462046F8BD70B505466D
:1045AC000C46084649B100F0A1FE2B680246214694
:1045BC002846DB68BDE87040184770BD03689B68EF
:1045CC00184730B58BB00B4600218DF82410012A0A
:1045DC0098BF0A220DF12304B3FBF2F505FB12334D
:1045EC0003F0FF03092B94BF30333733DBB2214682
:1045FC0004F801392B46002DEED1FFF7CFFF0BB09D
:10460C0030BD0000014B024A1A607047E4E30320FE
:10461C00D3530D00024B1A68024B1A60704700BF4F
:10462C0060E30320E8E303200021FFF781BE10B50F
:10463C008368044613B1032201469847204610BDF7
:10464C0010B50446FFF7F3FF204610BD0348044A9B
:10465C0004490023836000F095BC00BFECE3032009
:10466C00C8E303204D460D0008B50C4B33B100F0E8
:10467C0053F903681B699847002809DC084B63B1A0
:10468C0000F0CCF903681B699847002803DC08BDCF
:10469C00AFF30080F2E7AFF3008008BD000000002C
:1046AC000000000008B5FFF7DFFFFFF759FD014BD5
:1046BC00186008BD30E703200248034A0349121A68
:1046CC0000F0D8BD00F4032004F4032050560D0074
:1046DC0007B5002300931A466FF07701FFF73AFEF7
:1046EC0003B05DF804FB000007B543880A2B08D023
:1046FC00502B09D1094B1B683BB103B05DF804EB9F
:10470C001847FFF7E5FF06E0002300931A466FF009
:10471C007701FFF71FFE03B05DF804FBFCE30320F9
:10472C0038B5104C104D2368AB42104B0CBF012216
:10473C0000221A7002D0FFF7BFFF2560FFF708FDBB
:10474C00044600F0ABFD0A4B13B12046AFF30080DA
:10475C0000210748FFF758FE00210648BDE8384005
:10476C00FFF7EEBD00F403201E1C279A00E4032083
:10477C0000000000F5460D00704710B518210446E6
:10478C0000F00EFC204610BDF0B5037D062B8DB05D
:10479C000E4600F104074FF0000402D000F10805AA
:1047AC0018E00CAD394605F8304D2F232A460A2067
:1047BC00FFF706FD284600F099FD33680246DB68DA
:1047CC002946304698470FE024B12E213046FFF79A
:1047DC00F5FE044415F8011D0A223046FFF7F1FEE0
:1047EC00BD420444F0D120460DB0F0BD10B5054BD0
:1047FC000446112240F8043B002100F046FD2046FF
:10480C0010BD00BF74540D000346074A10B543F8A1
:10481C00042B01F1100251F8044B43F8044B914264
:10482C00F9D10A781A7010BD74540D0010B59DF8AA
:10483C00084044EA032343EA024242EA01610423AA
:10484C004160037510BD37B50D788B784A78C978FF
:10485C0000912946FFF7EAFF03B030BD4174704761
:10486C00704708B50021007CFFF742FD30EA2000BC
:10487C0028BF4FF0FF3008BD08B50121007CFFF7C1
:10488C0037FD30EA200028BF4FF0FF3008BD08B5D7
:10489C00007CFFF725FD20EAE07008BD08B5007C20
:1048AC00FFF716FD20EAE07008BD007CFFF730BD75
:1048BC0010B51421044600F073FB204610BD38B52A
:1048CC000446007C0D46FFF70BFD002801DC607CE4
:1048DC0028B12946207CFFF713FD20EAE07038BD93
:1048EC0010B50446002363604FF47A73A360054B44
:1048FC00236001230846217463741146FFF7E0FC22
:10490C00204610BD88540D0010B514220446002119
:10491C0000F0BBFC204610BD30B50E4D87B001A891
:10492C00FFF7F2FF296811F0010410D12846FFF7B8
:10493C00B0FB60B101AA21460748FFF7D1FF28461A
:10494C00FFF7ACFB054A0649034800F01BFB024885
:10495C0007B030BD04E4032008E40320C8E30320BF
:10496C006D480D0070474174704708B5007CFFF727
:10497C0067FC20EAE07008BD08B5007CFFF738FC46
:10498C0020EAE07008BD08B5007CFFF741FC30EA76
:10499C00200028BF4FF0FF3008BD08B5007CFFF7A2
:1049AC002FFC30EA200028BF4FF0FF3008BD007C00
:1049BC00FFF736BC10B51421044600F0F1FA20467E
:1049CC0010BD70B5457C04460E4625B9007CFFF73A
:1049DC0037FC002805DD3146207CBDE87040FFF730
:1049EC00FFBB284670BD000010B5044608461146B2
:1049FC00002262604FF47A72A260054A22600122A2
:104A0C00207462741A46FFF7E3FB204610BD00BF0A
:104A1C00B8540D00007CFFF70BBC000038B50C4DF2
:104A2C00296811F0010411D12846FFF732FB68B157
:104A3C00084A094B09482146FFF7D6FF2846FFF7DD
:104A4C002DFB074A0749054800F09CFA034838BD7E
:104A5C00B4E40320B8E4032030E403201CE4032076
:104A6C00C8E3032071490D007047F8B5064615469A
:104A7C000C468F18BC4206D0336814F8011B9B6897
:104A8C0030469847F6E72846F8BD0022007CFFF731
:104A9C00DFBB0021007CFFF7E3BB0021007CFFF7AC
:104AAC00E7BB0021007CFFF7EBBB0021007CFFF78C
:104ABC00EFBB10B51421044600F072FA204610BD6D
:104ACC0010B50446002363604FF47A73A360044B63
:104ADC002174084623601146FFF7EAFB204610BDFF
:104AEC00E8540D000021007CFFF7DABB00221146D0
:104AFC004068FFF771BC002211464068FFF77CBC90
:104B0C0000224068FFF770BC002281F00101406870
:104B1C00FFF75ABC00231A4601214068FFF74CBC32
:104B2C0000231A4619464068FFF73EBC0022114686
:104B3C004068FFF731BC002211464068FFF71CBCEF
:104B4C00002202214068FFF71FBC00231A46406870
:104B5C00FFF70ABC38B5054688B104684CB1A368A8
:104B6C001BB103222146204698471021204600F015
:104B7C0017FA28461421BDE8384000F011BA38BDA8
:104B8C0010B103685B681847704710B5036804469A
:104B9C00BBB15868FFF7ECFA78B923685A7C12B9A4
:104BAC005868FFF7EDFA23685868FFF7F1FA2068A8
:104BBC000023236028B1FFF7CDFF206808B1FFF771
:104BCC00C9FF204610BD38B50446D0F8C40108B161
:104BDC00FFF75DFAD4F8C00108B1FFF7E9FAD4F891
:104BEC00BC5135B12846FFF7D0FF0421284600F010
:104BFC00D7F9206808B1FFF7C3FF204638BD000085
:104C0C0010B5044B044640F8083BFFF7DCFF204688
:104C1C0010BD00BF10550D0038B50E4C0E4B236067
:104C2C000025022304F5E4706360A560C4F8C45148
:104C3C00C4F8C851FFF7B4FA084BC4F8CC5184F847
:104C4C00D05123602046064A0649BDE8384000F0A2
:104C5C0099B900BF3CE5032078550D0010550D00A7
:104C6C00C8E303200D4C0D00002211464068FFF7ED
:104C7C0093BB002211464068FFF7AEBB00221146E1
:104C8C004068FFF7B9BB00224068FFF7ADBB0022BC
:104C9C0081F001014068FFF797BB00231A461946C3
:104CAC004068FFF789BB00231A4619464068FFF796
:104CBC007BBB002211464068FFF75EBB002202213D
:104CCC004068FFF761BB00231A464068FFF74CBBF6
:104CDC00024B04225A60024A1A60704710E7032004
:104CEC0044550D0000231A464068FFF73DBB0022D7
:104CFC0002214068FFF748BB002211464068FFF7CD
:104D0C003BBB002211464068FFF746BB00231A4606
:104D1C0019464068FFF748BB00231A4619464068FD
:104D2C00FFF74ABB002281F001014068FFF74CBB42
:104D3C0000224068FFF758BB002211464068FFF77D
:104D4C005BBB002211464068FFF746BB2DE9F043E0
:104D5C00002495B016460D460746FFF747FD214641
:104D6C0020220CA8009400F090FA40230C932146CA
:104D7C006B460CAA3046FFF7B3F90446002844D121
:104D8C00024601216868FFF707FB02218046224694
:104D9C006868FFF701FB009E81462146002E34D047
:104DAC00002932D17368022B02D00A2B09D02AE0D9
:104DBC00B8F1000F27D0716938460431FFF743FD75
:104DCC0020E0B9F1000F1ED07469112201A800F087
:104DDC005CFA06238DF8143001AD04F10803183485
:104DEC00186859682A4603C20833A3421546F7D1FE
:104DFC0001A906A807ADFFF707FD0FCD3C1D0FC499
:104E0C002B6823700121F669C8E70098FFF760F959
:104E1C00384615B0BDE8F083024B034A1A600022F5
:104E2C005A60704718E7032078550D0010B50446FA
:104E3C0000F048F8FFF754FB28B1A4F10B03022B48
:104E4C0001D8002010BD00F077F8FFF74BFE08B139
:104E5C00012CF6D9FFF7E2FDFFF7DCFD18B1A4F148
:104E6C000903012BEDD9232C8CBF0020012010BD90
:104E7C00232838B504460D460AD8FF2908D0FFF779
:104E8C00D5FF28B129462046BDE83840FFF738B990
:104E9C0038BD38B504460D46FFF73AF9FF2810D057
:104EAC00062804D84D2323FA00F0C30709D4204662
:104EBC00FFF7BCFF28B129462046BDE83840FFF774
:104ECC002FB938BD38B50B4D296811F001040FD13D
:104EDC002846FFF7DEF858B121460748FFF7F2FAEB
:104EEC002846FFF7DBF8054A0549034800F04AF865
:104EFC00014838BD2CE7032020E70320C8E303203A
:104F0C00C1440D0070B5044614252A46094E0021F3
:104F1C0000F0BBF9258020253146A5602561284687
:104F2C0000F040F831466060284600F03BF8E06045
:104F3C00204670BDA4550D0030B50E4D296811F0FA
:104F4C00010487B013D12846FFF7A3F878B101A864
:104F5C00FFF7D8FF01AA21460748FFF7B1FD284605
:104F6C00FFF79CF8054A0649034800F00BF8024885
:104F7C0007B030BD34E7032038E70320C8E3032033
:104F8C00754A0D000B460146184600F065B9000045
:104F9C00024B1868BFF35F8F704700BF4CE70320CC
:104FAC00FFF773B800F000B810B5002814BF044622
:104FBC0001242046FFF730FA20B9FFF7E9FF08B1CA
:104FCC008047F6E710BD0000184B1A68D1075CBF8C
:104FDC0001221A60164B1A68D2075CBF01221A60B4
:104FEC00144B1A68D0075CBF01221A60124B1A6866
:104FFC00D1075CBF01221A60104B1A68D2075CBF44
:10500C0001221A600E4B1A68D0075CBF01221A608D
:10501C000C4B1A68D1075CBF01221A600A4B1A6844
:10502C00D2075CBF01221A60704700BF6CE70320F7
:10503C0068E7032064E7032060E703205CE70320B4
:10504C0058E7032054E7032050E70320244B1A6849
:10505C00D0075CBF01221A60224B1A68D1075CBFD3
:10506C0001221A60204B1A68D2075CBF01221A6019
:10507C001E4B1A68D0075CBF01221A601C4B1A68C1
:10508C00D1075CBF01221A601A4B1A68D2075CBFA9
:10509C0001221A60184B1A68D0075CBF01221A60F3
:1050AC00164B1A68D1075CBF01221A60144B1A68A0
:1050BC00D2075CBF01221A60124B1A68D0075CBF82
:1050CC0001221A60104B1A68D1075CBF01221A60CA
:1050DC000E4B1A68D2075CBF01221A60704700BFE2
:1050EC009CE7032098E7032094E7032090E7032034
:1050FC008CE7032088E7032084E7032080E7032064
:10510C007CE7032078E7032074E7032070E7032093
:10511C00244B1A68D0075CBF01221A60224B1A6814
:10512C00D1075CBF01221A60204B1A68D2075CBF02
:10513C0001221A601E4B1A68D0075CBF01221A604C
:10514C001C4B1A68D1075CBF01221A601A4B1A68F3
:10515C00D2075CBF01221A60184B1A68D0075CBFDB
:10516C0001221A60164B1A68D1075CBF01221A6023
:10517C00144B1A68D2075CBF01221A60124B1A68D2
:10518C00D0075CBF01221A60104B1A68D1075CBFB4
:10519C0001221A600E4B1A68D2075CBF01221A60FA
:1051AC00704700BFCCE70320C8E70320C4E7032007
:1051BC00C0E70320BCE70320B8E70320B4E70320D3
:1051CC00B0E70320ACE70320A8E70320A4E7032003
:1051DC00A0E70320184B1A68D1075CBF01221A60A4
:1051EC00164B1A68D2075CBF01221A60144B1A685E
:1051FC00D0075CBF01221A60124B1A68D1075CBF42
:10520C0001221A60104B1A68D2075CBF01221A6087
:10521C000E4B1A68D0075CBF01221A600C4B1A683F
:10522C00D1075CBF01221A600A4B1A68D2075CBF17
:10523C0001221A60704700BFECE70320E8E7032067
:10524C00E4E70320E0E70320DCE70320D8E70320B2
:10525C00D4E70320D0E7032010B5054C13462CB13E
:10526C000A4601460220AFF3008010BD204610BD57
:10527C000000000010B5431E0A44914204D011F8FE
:10528C00014B03F8014FF8E710BD0244034693426B
:10529C0002D003F8011BFAE77047000038B5124B37
:1052AC001C68A36B0546D3B91820FFF7B5F843F279
:1052BC000E33A06303804AF6CD33438041F234238E
:1052CC0083804EF26D63C3804DF6EC63038105233E
:1052DC0043810B23838101220023C0E90423A36BA8
:1052EC0000221D615A6138BDC4E30320034613F844
:1052FC00012B002AFBD1181A013870471D400D00F4
:10530C0059400D0085400D0089400D000000000043
:10531C000000000000000000A3440D0099440D00A3
:10532C008F440D0085440D0079440D006D440D0033
:10533C0061440D0059440D004F440D0045440D00CF
:10534C00594D0D000000000000000000C1440D008C
:10535C00C3440D00626175640053657269616C0031
:10536C0053657269616C310074797065007061729B
:10537C00616D00636D6400696400686E6400737431
:10538C00726D0066696C74006C766C0061646448C4
:10539C00616E646C65720072656D6F766548616EE6
:1053AC00646C657200656E756D48616E646C6572D7
:1053BC0073004A534F4E53747265616D4C6F67485E
:1053CC00616E646C657200617070002530313075EF
:1053DC0020005D20002564002C200028293A2000A4
:1053EC00205B00636F6465203D20002569006465C7
:1053FC007461696C73203D20000D0A0066006C6EB0
:10540C0000666E00636F64650064657461696C00AE
:10541C006E6F6E6500747261636500696E666F0015
:10542C007761726E006572726F720070616E696383
:10543C0000616C6C005A00252B3033643A253032F5
:10544C00750025592D256D2D25645425483A254D7B
:10545C003A2553257A0061736374696D6500000009
:10546C00000000000000000095470D0085470D006E
:10547C0087470D0000000000000000006D480D0083
:10548C00BD480D00CB480D007D450D00A9480D0011
:10549C006F480D0085480D00B7480D009B480D0066
:1054AC0069480D00000000000000000071490D006B
:1054BC00C1490D00CF490D007D450D0085490D00FA
:1054CC00A7490D0093490D00BB490D0073490D0010
:1054DC0077490D000000000000000000754A0D0027
:1054EC00BF4A0D00974A0D00774A0D009F4A0D00E8
:1054FC00A74A0D00AF4A0D00B74A0D00000000008E
:10550C0000000000574B0D004D4B0D00434B0D00A0
:10551C00394B0D002D4B0D00214B0D00154B0D0083
:10552C000D4B0D00034B0D00F94A0D00594D0D00AC
:10553C000000000000000000D34C0D00C94C0D0011
:10554C00BF4C0D00754C0D00B34C0D00A74C0D005D
:10555C009B4C0D00934C0D00894C0D007F4C0D00A5
:10556C00594D0D000000000000000000F14C0D0032
:10557C00FB4C0D00054D0D000F4D0D00194D0D0090
:10558C00254D0D00314D0D003D4D0D00454D0D00CF
:10559C004F4D0D00594D0D000000000000000000A3
:1055AC0000000000000000000000000000000000EF
:1055BC0000000000000000000000000000000000DF
:1055CC0000000000000000000000000000000000CF
:1055DC0000000000000000000000000000000000BF
:1055EC0000000000000000000000000000000000AF
:1055FC00000000000000000000000000430000005C
:10560C00D9400D00AD440D0011450D0055450D0060
:10561C0011460D0021460D0059460D00254C0D007C
:10562C00DD4C0D00254E0D00D54F0D0059500D00D1
:10563C001D510D00E1510D000000000000000000A4
:04564C00000000005A
:045650000000000056
:1056540062540D0000000000A8550D00C8550D004F
:10566400E8550D00000000000000000000000000EC
:105674000000000008560D000000000000000000BB
:105684000000000000000000000000000000000016
:105694000000000000000000000000000000000006
:1056A40000000000000000000000000000000000F6
:0856B4000000000064E3032084
:1056BC00FFFFFFFF00000102030405060708090AAB
:1056CC000B0C0D0E0F101112131415161718191AA6
:0856DC001B1C1D1E1F202800ED
:0456E40078563412AE
:04000003D000401CCD
:00000001FF
