:020000023000CC
:1000000000F003202102030065020300F530030025
:1000100069020300A1310300E53103000000000084
:100020000000000000000000000000001D100A0099
:1000300071020300000000003D100A003D110A009B
:1000400095A409007702030089BF090059BE090081
:10005000A5BE09007702030069B8090071AC090068
:10006000E5950900F99509000D960900770203004E
:1000700077020300958B09007702030077020300E3
:1000800049960900F5A30900F18709003DBF090061
:10009000458909004B890900B1E609005154070060
:1000A00077020300770203002196090035960900C4
:1000B00019AC09002DBA0900000000000000000082
:1000C0007702030029AC090039AC0900F1BE090030
:1000D0001D7A03006D9C09007702030045DA0900D0
:1000E0002BF90300C5A3090055740B0000000000A4
:1000F0000000000049AC090000000000098D090063
:1001000000000000000000000000000000000000EF
:1001100000000000000000000000000000000000DF
:1001200000000000000000000000000000000000CF
:1001300000000000000000000000000000000000BF
:1001400000000000000000000000000000000000AF
:10015000000000000000000000000000000000009F
:10016000000000000000000000000000000000008F
:10017000000000000000000000000000000000007F
:10018000000000000000000000000000000000006F
:10019000000000000000000000000000000000005F
:1001A000000000000000000000000000000000004F
:1001B000000000000000000000000000000000003F
:1001C000000000000000000000000000000000002F
:1001D000000000000000000000000000000000001F
:1001E000000000000000000000000000000000000F
:1001F00000000000000000000000000000000000FF
:1002000000000300E0DC0D0000004E040C000300C1
:080210000000000000000000E6
:100220000C490D4A0D4B9B1A03DD043BC858D050B6
:10023000FBDC0A490A4A0020521A02DD043A8850BF
:10024000FCDC6BF03FFF03F075F811F00BFF03F0DF
:10025000B5F9000050D40D000042002048490020AC
:10026000B8720120FEE7FEE7FEE7FEE7FEE7FEE7E5
:10027000FEE7FEE7FEE7FEE7D0400B1CD1409C46C0
:10028000203AD34018435242634693401843704784
:100290009140031C90409C46203A9340194352429F
:1002A0006346D3401943704781F0004102E000BF2C
:1002B00083F0004330B54FEA41044FEA430594EA26
:1002C000050F08BF90EA020F1FBF54EA000C55EA61
:1002D000020C7FEA645C7FEA655C00F0E2804FEA32
:1002E0005454D4EB5555B8BF6D420CDD2C4480EA14
:1002F000020281EA030382EA000083EA010180EA44
:10030000020281EA0303362D88BF30BD11F0004F91
:100310004FEA01314FF4801C4CEA113102D04042C7
:1003200061EB410113F0004F4FEA03334CEA133302
:1003300002D0524263EB430394EA050F00F0A7801A
:10034000A4F10104D5F1200E0DDB02FA0EFC22FA15
:1003500005F2801841F1000103FA0EF2801843FA09
:1003600005F359410EE0A5F120050EF1200E012AFA
:1003700003FA0EFC28BF4CF0020C43FA05F3C01838
:1003800051EBE37101F0004507D54FF0000EDCF1B1
:10039000000C7EEB00006EEB0101B1F5801F1BD35A
:1003A000B1F5001F0CD349085FEA30004FEA3C0C5E
:1003B00004F101044FEA445212F5800F80F09A8054
:1003C000BCF1004F08BF5FEA500C50F1000041EB58
:1003D000045141EA050130BD5FEA4C0C404141EB5C
:1003E000010111F4801FA4F10104E9D191F0000F83
:1003F00004BF01460020B1FA81F308BF2033A3F106
:100400000B03B3F120020CDA0C3208DD02F1140CFC
:10041000C2F10C0201FA0CF021FA02F10CE002F137
:100420001402D8BFC2F1200C01FA02F120FA0CFC30
:10043000DCBF41EA0C019040E41AA2BF01EB045179
:10044000294330BD6FEA04041F3C1CDA0C340EDC77
:1004500004F11404C4F1200220FA04F001FA02F3BA
:1004600040EA030021FA04F345EA030130BDC4F178
:100470000C04C4F1200220FA02F001FA04F340EA6D
:100480000300294630BD21FA04F0294630BD94F01E
:10049000000F83F4801306BF81F480110134013D05
:1004A0004EE77FEA645C18BF7FEA655C29D094EA76
:1004B000050F08BF90EA020F05D054EA000C04BFF4
:1004C0001946104630BD91EA030F1EBF00210020DF
:1004D00030BD5FEA545C05D14000494128BF41F07E
:1004E000004130BD14F580043CBF01F5801130BDE2
:1004F00001F0004545F0FE4141F470014FF000006D
:1005000030BD7FEA645C1ABF194610467FEA655C1D
:100510001CBF0B46024650EA013406BF52EA0335BF
:1005200091EA030F41F4002130BD00BF90F0000FAD
:1005300004BF0021704730B54FF4806404F13204E9
:100540004FF000054FF0000150E700BF90F0000FA2
:1005500004BF0021704730B54FF4806404F13204C9
:1005600010F0004548BF40424FF000013EE700BF99
:1005700042004FEAE2014FEA31014FEA02701FBF29
:1005800012F07F4393F07F4F81F06051704792F0FB
:10059000000F14BF93F07F4F704730B54FF4607475
:1005A00001F0004521F0004120E700BF50EA0102C0
:1005B00008BF704730B54FF000050AE050EA01026D
:1005C00008BF704730B511F0004502D5404261EBDD
:1005D00041014FF4806404F132045FEA915C3FF41E
:1005E000DCAE4FF003025FEADC0C18BF03325FEAB7
:1005F000DC0C18BF033202EBDC02C2F1200300FA6C
:1006000003FC20FA02F001FA03FE40EA0E0021FA90
:1006100002F11444C1E600BF70B54FF0FF0C4CF47A
:10062000E06C1CEA11541DBF1CEA135594EA0C0F30
:1006300095EA0C0F00F0DEF82C4481EA030621EA6B
:100640004C5123EA4C5350EA013518BF52EA0335A6
:1006500041F4801143F4801338D0A0FB02CE4FF058
:100660000005E1FB02E506F00042E0FB03E54FF088
:100670000006E1FB03569CF0000F18BF4EF0010E80
:10068000A4F1FF04B6F5007F64F5407404D25FEA7C
:100690004E0E6D4146EB060642EAC62141EA55512F
:1006A0004FEAC52040EA5E504FEACE2EB4F1FD0C71
:1006B00088BFBCF5E06F1ED8BEF1004F08BF5FEAEF
:1006C000500E50F1000041EB045170BD06F00046A1
:1006D00046EA010140EA020081EA0301B4EB5C044E
:1006E000C2BFD4EB0C0541EA045170BD41F4801146
:1006F0004FF0000E013C00F3AB8014F1360FDEBF6B
:10070000002001F0004170BDC4F10004203C35DA46
:100710000C341BDC04F11404C4F1200500FA05F3C9
:1007200020FA04F001FA05F240EA020001F000426A
:1007300021F0004110EBD37021FA04F642EB0601E0
:100740005EEA430E08BF20EAD37070BDC4F10C040A
:10075000C4F1200500FA04F320FA05F001FA04F2CE
:1007600040EA020001F0004110EBD37041F10001BA
:100770005EEA430E08BF20EAD37070BDC4F12005C5
:1007800000FA05F24EEA020E20FA04F301FA05F22D
:1007900043EA020321FA04F001F0004121FA04F2D5
:1007A00020EA020000EBD3705EEA430E08BF20EAA5
:1007B000D37070BD94F0000F0FD101F000464000DF
:1007C00041EB010111F4801F08BF013CF7D041EA61
:1007D000060195F0000F18BF704703F00046520065
:1007E00043EB030313F4801F08BF013DF7D043EA36
:1007F0000603704794EA0C0F0CEA135518BF95EAEC
:100800000C0F0CD050EA410618BF52EA4306D1D172
:1008100081EA030101F000414FF0000070BD50EA91
:10082000410606BF1046194652EA430619D094EA1B
:100830000C0F02D150EA013613D195EA0C0F05D105
:1008400052EA03361CBF104619460AD181EA030159
:1008500001F0004141F0FE4141F470014FF0000011
:1008600070BD41F0FE4141F4780170BD70B54FF0AC
:10087000FF0C4CF4E06C1CEA11541DBF1CEA13552C
:1008800094EA0C0F95EA0C0F00F0A7F8A4EB05040E
:1008900081EA030E52EA03354FEA013100F0888005
:1008A0004FEA03334FF0805545EA131343EA1263CE
:1008B0004FEA022245EA111545EA10654FEA002683
:1008C0000EF000419D4208BF964244F1FD0404F53C
:1008D000407402D25B084FEA3202B61A65EB030598
:1008E0005B084FEA32024FF480104FF4002CB6EB55
:1008F000020E75EB030E22BFB61A754640EA0C00D5
:100900005B084FEA3202B6EB020E75EB030E22BF14
:10091000B61A754640EA5C005B084FEA3202B6EB55
:10092000020E75EB030E22BFB61A754640EA9C0014
:100930005B084FEA3202B6EB020E75EB030E22BFE4
:10094000B61A754640EADC0055EA060E18D04FEAA2
:10095000051545EA16754FEA06164FEAC30343EA42
:1009600052734FEAC2025FEA1C1CC0D111F4801F0F
:100970000BD141EA00014FF000004FF0004CB6E708
:1009800011F4801F04BF01430020B4F1FD0C88BFA7
:10099000BCF5E06F3FF6AFAEB5EB030C04BFB6EBB2
:1009A000020C5FEA500C50F1000041EB045170BDA5
:1009B0000EF0004E4EEA113114EB5C04C2BFD4EBD2
:1009C0000C0541EA045170BD41F480114FF0000E56
:1009D000013C90E645EA060E8DE60CEA135594EAD2
:1009E0000C0F08BF95EA0C0F3FF43BAF94EA0C0FD5
:1009F0000AD150EA01347FF434AF95EA0C0F7FF44A
:100A000025AF104619462CE795EA0C0F06D152EA9D
:100A100003353FF4FDAE1046194622E750EA410681
:100A200018BF52EA43067FF4C5AE50EA41047FF492
:100A30000DAF52EA43057FF4EBAE12E74FF0FF3CF7
:100A400006E000BF4FF0010C02E000BF4FF0010CC8
:100A50004DF804CD4FEA410C7FEA6C5C4FEA430C41
:100A600018BF7FEA6C5C1BD001B050EA410C0CBF90
:100A700052EA430C91EA030F02BF90EA020F0020F2
:100A8000704710F1000F91EA030F58BF994208BF59
:100A900090422CBFD8176FEAE37040F00100704716
:100AA0004FEA410C7FEA6C5C02D150EA013C07D16D
:100AB0004FEA430C7FEA6C5CD6D152EA033CD3D0B8
:100AC0005DF8040B704700BF8446104662468C46B2
:100AD0001946634600E000BF01B5FFF7B7FF0028E5
:100AE00048BF10F1000F01BD4DF808EDFFF7F4FF0E
:100AF0000CBF012000205DF808FB00BF4DF808ED99
:100B0000FFF7EAFF34BF012000205DF808FB00BFBB
:100B10004DF808EDFFF7E0FF94BF012000205DF8DD
:100B200008FB00BF4DF808EDFFF7CEFF94BF012092
:100B300000205DF808FB00BF4DF808EDFFF7C4FF8B
:100B400034BF012000205DF808FB00BF4FEA410CD4
:100B50007FEA6C5C02D150EA013C0AD14FEA430CB7
:100B60007FEA6C5C02D152EA033C02D14FF00000F4
:100B700070474FF0010070474FEA410212F5001232
:100B800015D211D56FF47873B3EB625212D94FEAD4
:100B9000C12343F0004343EA505311F0004F23FABE
:100BA00002F018BF404270474FF00000704750EA13
:100BB000013005D111F0004008BF6FF000407047D0
:100BC0004FF00000704700BF4A0011D212F500122A
:100BD00011D20DD56FF47873B3EB62520ED44FEA95
:100BE000C12343F0004343EA505323FA02F0704715
:100BF0004FF00000704750EA013002D14FF0FF3053
:100C000070474FF0000070477BB972B90029BEBF32
:100C100000204FF0004106E008BF00281CBF6FF025
:100C200000414FF0FF3000F0DDB9ADF1080C6DE987
:100C300004CE002909DB002B1ADB00F061F8DDF897
:100C400004E0DDE9022304B07047404261EB41015A
:100C5000002B1BDB00F054F8DDF804E0DDE9022393
:100C600004B0404261EB4101524263EB43037047E1
:100C7000524263EB430300F043F8DDF804E0DDE9A2
:100C8000022304B0404261EB41017047524263EBE2
:100C9000430300F035F8DDF804E0DDE9022304B099
:100CA000524263EB4303704753B94AB9002908BF66
:100CB00000281CBF4FF0FF314FF0FF3000F092B919
:100CC000ADF1080C6DE904CE00F01AF8DDF804E08F
:100CD000DDE9022304B07047430803F05533C01A1E
:100CE000830803F0333300F03330184400EB101066
:100CF00000F00F3000EB002000EB0040000E7047CA
:100D00002DE9F0478C460E460446089D002B50D135
:100D10008A4217466CD9B2FA82FEBEF1000F0BD0A0
:100D2000CEF1200420FA04F401FA0EF644EA060C8F
:100D300002FA0EF700FA0EF44FEA1749220CBCFB38
:100D4000F9F01FFA87F809FB10C642EA064600FBD5
:100D500008F3B34209D9F61900F1FF3280F022817D
:100D6000B34240F21F8102383E44F61AA2B2B6FBEB
:100D7000F9F309FB136642EA064403FB08F8A045B1
:100D800009D9E41903F1FF3280F00A81A04540F24D
:100D90000781023B3C44C8EB040443EA00400021C5
:100DA000002D62D024FA0EF400232C606B60BDE8A5
:100DB000F0878B4207D9002D55D0002185E84100EE
:100DC0000846BDE8F087B3FA83F1002940F090802F
:100DD000B34202D3824200F2F880841A66EB030623
:100DE0000120B446002D40D085E81010BDE8F08702
:100DF00012B90127B7FBF2F7B7FA87FEBEF1000F71
:100E000035D1F31B4FEA17481FFA87FC0121B3FBCA
:100E1000F8F0220C08FB103642EA06460CFB00F301
:100E2000B34207D9F61900F1FF3202D2B34200F201
:100E3000CE801046F61AA2B2B6FBF8F308FB136692
:100E400042EA06440CFB03FCA44507D9E41903F16C
:100E5000FF3202D2A44500F2B5801346CCEB040465
:100E600043EA00409CE729462846BDE8F087CEF1DA
:100E7000200106FA0EF307FA0EF720FA01F94FEAFD
:100E80001748CE4049EA0309B6FBF8FA4FEA19447D
:100E900008FB1A661FFA87FC44EA06430AFB0CF2B9
:100EA0009A4200FA0EF40AD9DB190AF1FF3180F0F8
:100EB00087809A4240F28480AAF1020A3B449B1A3E
:100EC0001FFA89F9B3FBF8F108FB113349EA034330
:100ED00001FB0CF69E4207D9DB1901F1FF326BD200
:100EE0009E4269D902393B449B1B41EA0A418EE785
:100EF000C1F1200E22FA0EF48B40234320FA0EF7A4
:100F000006FA01F44FEA134C26FA0EF63C43B6FB00
:100F1000FCF9270C0CFB19661FFA83F847EA064612
:100F200009FB08F7B74202FA01F200FA01FA08D900
:100F3000F61809F1FF3041D2B7423FD9A9F10209B1
:100F40001E44F61BA0B2B6FBFCF40CFB146640EA90
:100F5000064704FB08F8B84507D9FF1804F1FF302D
:100F600028D2B84526D9023C1F4444EA0940C8EBC0
:100F70000707A0FB02894F4544464E4614D329D0AB
:100F800065B3BAEB040367EB060707FA0EFECB4026
:100F9000CF404EEA030385E888000021BDE8F087D2
:100FA0001346F8E61046E0E6B8EB020469EB0306E8
:100FB0000138E5E70446D8E7114695E78146C0E7E2
:100FC0008A467CE7023B3C4448E708460AE7023889
:100FD0003E442FE7C245E7D33E46D1E72946BDE868
:100FE000F08700BF704700BF000000000000000055
:100FF00001F0FF01102A2BDB10F0070F08D010F8CA
:10100000013B013A8B422DD010F0070F42B3F6D1CD
:10101000F0B441EA012141EA014122F007047FF0E6
:1010200000070023F0E80256083C85EA010586EA3D
:10103000010685FA47F5A3FA87F586FA47F6A5FA79
:1010400087F68EB9EED1F0BC01F0FF0102F0070285
:1010500032B110F8013B013A83EA010313B1F8D130
:101060000020704701387047002D06BF3546033811
:10107000073815F0010F07D1013015F4807F02BF4A
:10108000013015F4C03F0130F0BC0138704700BF9B
:1010900010F8012B11F8013B012A28BF9A42F7D022
:1010A000D01A7047034613F8012B002AFBD1181AF7
:1010B0000138704700B1807B704708B1C07B704732
:1010C000FF20704708B1808970474FF6FF70704766
:1010D00005C8101A7047084607F00ABA18B1436BE2
:1010E000994208BF0021084607F0E2B838B502FB74
:1010F00001F4204607F0FCF9054618B1224600210C
:1011000087F07DFC284638BD70B50D46164622B9DD
:10111000084607F0CDF8304670BD104607F0E8F9F4
:10112000044638B135B13246294687F042FC28469C
:1011300007F0BEF8204670BDF8B5064608460F46D3
:1011400002F0DEF907F04EF90C4C206007F03EF992
:1011500025682062281AE06107F03EF9281A6061CC
:10116000384602F0DDF90FCC35460FC50FCC0FC560
:1011700094E8030085E803003046F8BD48490020A4
:1011800007B5B42300228DE80C0007214FF4166345
:101190004FF40872024800F026F903B05DF804FB32
:1011A0007049002070B5104C00232360264621684A
:1011B0000D4DB32909DC0D4800F0D6F80F2000F0E2
:1011C00093FB336801333360F1E7B4232B6021686C
:1011D000002908DD054800F0C7F80F2000F084FB67
:1011E0002B68013BF2E770BD804900207049002068
:1011F00008B502F043FD0248BDE8084000F0DFB842
:101200007049002002F03ABD00221146406820F0EB
:1012100058BD00221146406820F051BD00224068B0
:1012200020F04CBD002281F00101406820F0CCBECE
:1012300000231A461946406820F074BE00231A465F
:101240001946406820F030BE00221146406820F068
:10125000BDBC00221146406820F008BD00220221DA
:10126000406820F091BD00231A46406820F044BF3A
:10127000024B03225A60024A1A60704784490020D8
:10128000E8BD0B0070470A680B4692680146184695
:101290001047000010B5054B00220446114640F8E7
:1012A000043B28F081FE204610BD00BF1CBE0B0091
:1012B00010B50446FFF7EEFF204610F08CFE2046E6
:1012C00010BD000070B50E4C04601C2444609DF8F5
:1012D00014409DF8106004F0030444EA86040025DD
:1012E000E4B20474427485744161427C85600F2AC3
:1012F00008BF044BC56006BF8361C061038370BD36
:101300001CBE0B0087120300704710B5044610F096
:1013100062FE204610BD000070B5084B0360044615
:1013200000250E4640F80C5F0CF0E5FC30462671B7
:101330000FF068FAA560204670BD00BF30BE0B00FC
:1013400000790FF03DB9B0F90020531C0BD0438851
:1013500080888B4203D88842034628BF0B46194633
:1013600090B20FF037BB704737B504460846B4F962
:101370000610B4F90820884203DB9042A8BF10464B
:1013800000E00846A5886388009500F0A1FAE168AE
:10139000014489B2204603B0BDE83040FFF7D3BF17
:1013A000B4224FF6FF7302814FF40872038042802B
:1013B00000234FF41662C3808280C360704708B573
:1013C000FFF7EEFF08BD10B50446B0F90000431C5E
:1013D00007D080B20FF0FCFA2046FFF7E1FF0120B2
:1013E00010BD002010BD2DE9F0410D46044602213C
:1013F000284690461F460FF085FD022801D00026A2
:1014000019E028462EF0E8FE06460028F7D0B4F989
:101410000030013302D02046FFF7D5FFBDF9183068
:10142000E380BDF91C302580A4F80280A7802381C9
:1014300028460FF0C9FA3046BDE8F08101F0DCBF64
:1014400001F0FABF014600228C2001F0CDBF002040
:10145000FFF7F8BF044B00204FF6FF72187058805A
:101460009A801DF0C7BB00BF8C49002010B5044610
:10147000FFF718FE013823182046984206D202785A
:10148000197800F8011B03F80129F6E710BD70B5C3
:101490000C46911E222920D82546294610B92344FE
:1014A00030220EE0B0FBF2F602FB1600C1B205F8E6
:1014B000011B092894BF3031573105F8011C304613
:1014C000EBE7994202D201F8012BFAE7002320460C
:1014D0000B70FFF7CBFF204670BD002070BD38B504
:1014E000031E0C4615460BDAB3F1004F4FF02D02E8
:1014F00014BF5842184601230A702A46194400E0D6
:101500000123FFF7C4FF204638BD0023036043607A
:101510008360037310B50C6804604C6844608C6889
:1015200084600B604B608B6010BD10B50446006892
:1015300087F028FA204610BD10B50446006808B1AF
:1015400087F020FA00232360A360636010BD38B5E4
:1015500004460D460068013187F070FF10B184E841
:101560002100012038BD10B50368044613B143685B
:101570008B4207D22046FFF7EAFF20B1A3680BB9E0
:1015800022681370012010BD70B50E461146044646
:101590001546FFF7E8FF18B92046FFF7CDFF09E031
:1015A0002A463146A560206887F003FA2268A368BE
:1015B0000021D154204670BD38B500230446036095
:1015C0004360836003730D4639B10846FFF76AFD37
:1015D000294602462046FFF7D7FF204638BD8842FD
:1015E00010B50B46044607D0096819B19A68FFF791
:1015F000CBFF01E0FFF7A0FF204610BD10B5002390
:1016000004460360436083600373FFF7E8FF2046EE
:1016100010BD70B504460E4609B9002070BD6AB110
:101620008368D5182946FFF79EFF0028F5D020686B
:10163000A3683146184488F046F8A560012070BDC3
:1016400007B500238DF80410012201A98DF805309B
:10165000FFF7DFFF03B05DF804FBF8B506460D4663
:101660008F180024BD420CD0336815F8011B9B680D
:1016700030469847002801DB0444F3E7002C08BFFC
:1016800004462046F8BD70B505460C46084649B1EB
:10169000FFF708FD2B68024621462846DB68BDE8B7
:1016A0007040184770BD08B5FFF7EDFF08BD03682F
:1016B0009B68184738B50D210546FFF7F8FF0A214A
:1016C00004462846FFF7F3FF204438BD38B50546E9
:1016D000FFF7D9FF04462846FFF7ECFF204438BD4A
:1016E00030B58BB00B4600218DF82410012A98BF2D
:1016F0000A220DF12304B3FBF2F505FB123303F0CC
:10170000FF03092B94BF30333733DBB2214604F893
:1017100001392B46002DEED1FFF7B5FF0BB030BDE0
:1017200010B42AB903685DF8044B9B68C9B2184726
:10173000D2B25DF8044BFFF7D3BFFFF7F1BF2DE93D
:10174000F04107460E4615462AB90368C9B29B68A0
:10175000BDE8F04118470A2A02D1002901DA04E065
:10176000D2B2BDE8F041FFF7BBBF2D21FFF79FFFCD
:101770002A46044671423846FFF7B2FF2044BDE8CE
:10178000F0810CB42DE9F04387B000AF07F13804C5
:10179000054654F8049B3C600E4623464A461421F5
:1017A000381D88F0ABF9132805D8391D2846FFF7F6
:1017B0006AFF044613E000F1080323F00703E8463C
:1017C000ADEB030D411C23464A4668463C6088F059
:1017D00095F969462846FFF756FF0446C5461EB1EF
:1017E0002846FFF767FF044420461C37BD46BDE886
:1017F000F04302B070472DE9F04705460E46924689
:101800001F460FF0DCF8002481463FB10FF0D7F8F7
:10181000C9EB0000874201D2BDE8F0872B6828465B
:101820001B6998470028F0DD2B6828465B699847BC
:101830005445C1B203D100233370BDE8F0870D29B0
:10184000F9D00A29F7D0082901D07F2905D1002C29
:10185000DBD006F1FF38013C03E006F101083170EE
:1018600001342B6828469B68E4B298474646CCE78B
:1018700038B5046805467CB16368013B63605BB9B9
:10188000236820469B689847A368013BA3601BB967
:1018900023682046DB689847284638BD0B680360FC
:1018A00013B15A6801325A6070470000014B024A76
:1018B0001A60704794490020DBBE0B00024B1A6887
:1018C000024B1A60704700BF004200209849002078
:1018D0008A4230B507D0039D441AED1A6C43521A60
:1018E00094FBF2F4E01830BD00211BF0DDBB10B515
:1018F0008368044613B1032201469847204610BD71
:1019000010B50446FFF7F3FF204610BD10B504469E
:1019100028F0D8F9844208D01CB1BDE8104028F066
:10192000B7B9BDE8104028F0EFB810BD70B5054656
:101930000E46144628F0C6F950B144EA062040EAA3
:10194000054028F0DBF8E720BDE8704028F036B904
:1019500070BDC2B2C0F30721C0F30740FFF7E6BF76
:1019600013B50B46044603C88DE8030093E8030053
:1019700084E803009DE8030083E8030002B010BD83
:101980000348044A04490023836086F025BC00BF55
:101990009C490020106600200119030008B50C4B7B
:1019A00033B100F07FFB03681B699847002809DC0E
:1019B000084B63B100F0F6FB03681B6998470028E9
:1019C00003DC08BDAFF30080F2E7AFF3008008BD91
:1019D000000000000000000008B5FFF7DFFF0EF078
:1019E000EEFF014B186008BD3889002070470020C9
:1019F000704710B5044610F0EEFA204610BD08B549
:101A000008B1FFF7F6FF08BD38B5C468D4B1237834
:101A1000022B02D1E06886F0B5FF65682DB128463B
:101A2000FFF765FF284610F0D6FAA5682DB12846C5
:101A3000FFF75DFF284610F0CEFA2046BDE838409B
:101A400010F0C9BA38BD13B5044691E8050000236B
:101A50004B600B602060626001A801930093FFF768
:101A600007FF204602B010BDF7B50C4602AD54F892
:101A7000043B45F8083D06460F4601A82146FFF7FE
:101A80000DFF29463046FFF7DEFF01A8FFF7F0FE05
:101A90002046FFF7EDFE384610F09DFA304603B0C1
:101AA000F0BD826810B50AB986F0E0FBC368BDE8F6
:101AB0001040184708B5006800F11001FFF7F1FF6A
:101AC00008BD826810B50AB986F0D0FBC368BDE8CE
:101AD0001040184708B5006800F11001FFF7F1FF4A
:101AE00008BD38B5002383608B6804460D462BB1D2
:101AF00002229847EB68E360AB68A360204638BDDC
:101B00002DE9F0414FF69C7386B00468B1F90420CA
:101B10008B8000230F688DF800300B604FF00200BF
:101B2000D4E84F1F994203D1C4E8450F002DF7D1E7
:101B300002D08DF800106AE014F10C051EBFE760BA
:101B400022821F460123BFF35F8F0020637004F1E0
:101B50000803BFF35F8F53E8006F43E80002002AD9
:101B6000F9D1BFF35F8F002E51D01BF073F820B175
:101B700029463046FFF795FF43E031466846FFF7B8
:101B8000B0FFE068B4F9105008B187F0B5FD0490DB
:101B90001020ADF8145010F01AFA054630B34FF08B
:101BA0000008C0F80880182010F011FA0446C0B1EF
:101BB000C0F8088001466846FFF7D2FE029BA26883
:101BC000A360039B0292E268E360BDF81430A38235
:101BD0004FF69C73ADF81430049B03922361CDF84B
:101BE00010800E4BEB600E4B2C60AB60049886F0BF
:101BF000C9FE6846FFF77BFE0022294609481BF014
:101C0000E9FB3046FFF773FE304610F0E4F9384642
:101C100086F0B8FE06B0BDE8F08100BFB51A03003B
:101C2000111D0300F12103002DE9F04F8BB007AD2A
:101C30004FF0000B0646994614200C230F469046A1
:101C40009DF850A0C5F804B0C5F808B0079310F08F
:101C5000BEF9044638B180F800B080F801B0C0F891
:101C600004B0C0F808B0002310200394049310F0CF
:101C7000AEF928B1012343608360234B0360C46045
:101C80000490224B0893082010F0A1F9044628B1D3
:101C9000039B40F8043B04A9FFF700FE00955FFAA0
:101CA0008AF34A4641463846099420F0F7FFB8B90E
:101CB000039B5B7803F0FF0293B94FF69C7305A971
:101CC00003A80592ADF81830FFF71AFF059886F0C3
:101CD00059FE05A80999FFF7C7FE06A8FFF7C8FD3A
:101CE000039B059304A906A8FFF7D8FD05A9304674
:101CF000FFF7A9FE06A8FFF7BBFD04A8FFF7B8FD94
:101D000030460BB0BDE8F08F28BF0B00791E0300F2
:101D1000022AF8B5044606D0032A17D0012A20D19A
:101D20000B6803601DE018200E6810F050F905469E
:101D300050B13146FFF7D5FE3069B6F9147008B1DD
:101D400087F0DAFC2861AF8225600AE0046844B1BC
:101D5000206986F017FE2046FFF7C9FD204610F0E7
:101D60003AF90020F8BD38B5002383608B6804463B
:101D70000D462BB102229847EB68E360AB68A36085
:101D8000204638BD022A70B5044606D0032A11D079
:101D9000012A17D10B68036014E014200E6810F0BC
:101DA00016F9054620B13146FFF7DDFF337C2B7471
:101DB000256007E004682CB12046FFF798FD204617
:101DC00010F009F9002070BDF0B5002387B00C4673
:101DD000BFF35F8F50E8006F40E80032002AF9D16E
:101DE000BFF35F8F002E3ED018461AF033FF074630
:101DF00020B121463046FFF764FE2EE0314601A8AF
:101E0000FFF7B1FF23788DF81430102010F0DFF8C1
:101E10000546D0B18760142010F0D9F8044678B197
:101E20008760014601A8FFF79BFD039BA268A360A2
:101E3000049B0392E268E3609DF8143004922374DB
:101E40000A4BEB600A4B2C60AB6001A8FFF74FFD1B
:101E50000022294607481BF0BDFA3046FFF747FD30
:101E6000304610F0B8F807B0F0BD00BFD51A030037
:101E7000851D0300F121030030B585B004460D46F1
:101E800068461146FFF7F0FD7CB124B228460DB13B
:101E900087F032FC029002A96846ADF80C40FFF7CB
:101EA0002FFE029886F06EFD1DE000988DF8084028
:101EB0004FF00102D0E84F3FA34203D1C0E8412FC9
:101EC0000029F7D102D08DF808300CE010F10C0198
:101ED0004FF0010318BF0373BFF35F8F043000F8A6
:101EE000033CFFF771FF01A8FFF7C2FC05B030BD4E
:101EF000704710B5044610F06EF8204610BDF0B5DE
:101F0000037D062B8DB00E4600F104074FF0000450
:101F100002D000F1080518E00CAD394605F8304D47
:101F20002F232A460A2010F07DFE2846FFF7BAF834
:101F300033680246DB682946304698470FE024B1F3
:101F40002E213046FFF7B3FB044415F8011D0A2289
:101F50003046FFF7F2FBBD420444F0D120460DB0FD
:101F6000F0BD000010B5054B0446112240F8043BBB
:101F7000002186F044FD204610BD00BF44BF0B0089
:101F80000346074A10B543F8042B01F1100251F83B
:101F9000044B43F8044B9142F9D10A781A7010BDF2
:101FA00044BF0B0010B59DF8084044EA032343EA00
:101FB000024242EA016104234160037510BD37B556
:101FC0000D788B784A78C97800912946FFF7EAFFA7
:101FD00003B030BD4174704770470021007C0CF0A5
:101FE000E6BE0121007C0CF0E2BE007C0CF0DDBE00
:101FF000007C0CF0D8BE38B50446007C0D460CF0D1
:10200000D4FE002801DC607C20B12946207C0CF045
:10201000D7FE012038BD007C0CF0DCBE10B50446B4
:102020000FF0D9FF204610BD10B5044600236360B1
:102030004FF47A73A360054B236001230846217493
:10204000637411460CF082FE204610BD58BF0B0091
:102050000022007C0CF0A2BE007C0CF0A2BE10B5E9
:1020600014220446002186F0CAFC204610BD000060
:1020700010B500234FF47A7286B004464360826044
:102080000374074A02600123437401A8FFF7E7FFC6
:10209000207C01A90CF05AFE204606B010BD00BFFE
:1020A00058BF0B0030B50E4D87B001A8FFF7D7FF22
:1020B000296811F0010410D128460EF0D3FC60B15C
:1020C00001AA21460748FFF7AFFF28460EF02CFD76
:1020D000054A0649034886F07FF8024807B030BD3C
:1020E000AC490020B049002010660020D91F030031
:1020F00038B5002383608B6804460D462BB102225D
:102100009847EB68E360AB68A360204638BD704732
:1021100041747047007C0DF0B9BD007C0DF0B2BC7D
:10212000007C0DF085BD007C0DF01ABD007C0DF02B
:10213000B7B810B504460FF04EFF204610BD70B57D
:10214000457C04460E4625B9007C0DF09FFD002815
:1021500005DD3146207CBDE870400DF015BE2846F7
:1021600070BD000010B504460846114600226260AA
:102170004FF47A72A260054A2260012220746274D0
:102180001A460DF069F8204610BD00BF88BF0B004D
:102190000023007C0DF0FAB90022FFF7F9BF007CA4
:1021A0000DF09DB838B50C4D296811F0010411D11E
:1021B00028460EF057FC68B1084A094B09482146E9
:1021C000FFF7D0FF28460EF0AFFC074A0749054845
:1021D00086F002F8034838BD5C4A0020604A0020BF
:1021E000D8490020C4490020106600200F210300B8
:1021F00010B5836804460BB986F038F8C368984771
:10220000A3681BB103222146204698472046BDE81B
:1022100010400FF0E0BE7047F8B5064615460C4674
:102220008F18BC4206D0336814F8011B9B683046F7
:102230009847F6E72846F8BD0022007C0DF0C8BE9E
:102240000021007C0DF0ECBE0021007C0DF0FEBEF4
:102250000021007C0DF01ABF0021007C0DF038BE7B
:1022600010B504460FF0B7FE204610BD10B5044669
:102270004FF47A730846A3600021044B2074616018
:1022800023600DF05DFE204610BD00BFB8BF0B00FF
:102290000021007C0DF016BF10B5044630B187F068
:1022A0006FF890FBF4F303FB140010BD10BD8842DF
:1022B00010B5044604DA081AFFF7EEFF204410BDFB
:1022C00010BD0022114640681FF0FBBC00221146E1
:1022D00040681FF0F4BC002240681FF0EFBC0022F1
:1022E00081F0010140681FF06FBE00231A461946B5
:1022F00040681FF017BE00231A46194640681FF0B9
:10230000D3BD0022114640681FF060BC0022114678
:1023100040681FF0ABBC0022022140681FF034BDB2
:1023200000231A4640681FF0E7BE38B5054678B16D
:10233000046844B1A3681BB1032221462046984794
:1023400020460FF048FE2846BDE838400FF043BE57
:1023500038BD10B103685B681847704710B5036853
:102360000446BBB158680BF057FC78B923685A7C17
:1023700012B958680BF066FC236858680BF074FCBF
:1023800020680023236028B1FFF7CFFF206808B141
:10239000FFF7CBFF204610BD38B50B4B036004465A
:1023A000D0F8CC0108B10FF018FED4F8C4512DB10B
:1023B0002846FFF7D3FF28460FF00DFEA06808B1AE
:1023C000FFF7C7FF204638BDE0BF0B0038B50D4C06
:1023D0000D4B23600025022304F5E4706360A560C3
:1023E000C4F8C451C4F8C8510BF0A3FC074BC4F89F
:1023F000CC5123602046064A0649BDE8384085F0A6
:10240000EBBE00BFE44A002048C00B00E0BF0B0059
:1024100010660020992303000022114640681FF037
:10242000D5BB0022114640681FF04BBC002211466C
:1024300040681FF044BC002240681FF03FBC0022EF
:1024400081F0010140681FF0BFBD00231A46194604
:1024500040681FF067BD00231A46194640681FF008
:1024600023BD0022114640681FF000BC002202215B
:1024700040681FF089BC00231A4640681FF03CBE2C
:10248000024B04225A60024A1A607047B44C002082
:1024900014C00B0000231A4640681FF02DBE002216
:1024A000022140681FF070BC0022114640681FF0F6
:1024B000DDBB0022114640681FF088BB00231A468E
:1024C000194640681FF0F0BC00231A4619464068C0
:1024D0001FF028BD002281F0010140681FF074BD8B
:1024E000002240681FF0EABB0022114640681FF03E
:1024F000E6BB0022114640681FF0E3BB2DE9F04324
:10250000002495B016460D460746FFF72BFD2146E1
:1025100020220CA8009486F072FA40230C932146E6
:102520006B460CAA304612F027F90446002844D125
:102530000246012168681FF049FB022180462246BD
:1025400068681FF043FB009E81462146002E34D070
:10255000002932D17368022B02D00A2B09D02AE05D
:10256000B8F1000F27D0716938460431FFF727FD15
:1025700020E0B9F1000F1ED07469112201A886F085
:102580003EFA06238DF8143001AD04F10803183427
:10259000186859682A4603C20833A3421546F7D182
:1025A00001A906A807ADFFF7EBFC0FCD3C1D0FC43A
:1025B0002B6823700121F669C8E7009812F0DAF859
:1025C000384615B0BDE8F083024B034A1A6000227A
:1025D0005A607047BC4C002048C00B0000B5023860
:1025E0008BB00C283BD8DFE800F0070D3A3A3A3AB6
:1025F000262F353A3A192300202302930023039310
:10260000184A04E020230293174A00230393009200
:10261000164902AA012027F00BFF20E0144B0022EC
:1026200083F8242083F82C209A6283F8252016E072
:102630006DF038F913E00E4B01225A706AF078FE03
:1026400068B96DF02DF90AE06DF03EF9084B0022F3
:102650005A7004E0064B02225A706DF025F90BB057
:102660005DF804FB5F320C0078320C0054320C0031
:10267000044D00202DE9F0413E4F3C7894B0002CF1
:1026800074D169F02DFE852810D078B120230C93E9
:10269000394B00930CAA39490D943C20234627F06E
:1026A000C7FE374A21460A2027F014FB002069F0B4
:1026B00033FE69F0A5FE0028FBD002AE00240C21F9
:1026C000304602947460B4600FF0EEFC05AD8046B5
:1026D00021461922284686F092F95FFA88F82146A9
:1026E000884516D0735C180900F13002392A88BF7A
:1026F00000F1570203F00F0305F8112003F1300237
:10270000392A88BF03F1570205EB410301315A70A2
:10271000E6E71C4E32220021304686F070F940F286
:102720003233338000242846FEF7BCFC844206D2B4
:1027300001342B1913F8013C26F81430F3E7124842
:102740006DF024F880B1202300240C930A4B0093F1
:102750000CAA0A490D943C20234627F069FE084A3A
:1027600021460A2027F0B6FA01233B70002014B05E
:10277000BDE8F081044D002090320C0054320C0072
:10278000651604006872012010340C0070B5264CE8
:102790001E46A378012B8AB015463CD00A46014656
:1027A000201D6CF0E1F8002837D12946324604F1AB
:1027B00014006CF0D9F80546002831D11B486DF0A3
:1027C0008DF878B120230293194B009302AA19497E
:1027D00003953C202B4627F02BFE174A29460A205A
:1027E00027F078FA00200CF091FA6DF043F880B1F0
:1027F0002023002502930E4B009302AA0D49039556
:102800003C202B4627F014FE0B4A29460A2027F0CD
:1028100061FA0123A370002004E04FF0FF3001E0D3
:102820006FF001000AB070BD044D0020F0330C00C1
:1028300090320C0054320C00651604002DE9F04370
:10284000394D95F824308DB007468846002B66D068
:102850006B78022B63D1354B9B68002B5FD1EFF374
:102860001083002B5BD1EFF31183052B57D8DFF8D2
:10287000D8900446E31B43451EDA2A8BE9692B6A8C
:102880005B1A9342FAD814F8011B29486CF07BF8C4
:102890000028EFD000262023049304AACDF800904E
:1028A0003346244905963C2027F0C2FD224A314692
:1028B0000A2027F00FFADDE795F8253000208DF883
:1028C0000F0003F0FF063BBB1C4F19480DF10F0131
:1028D000B4B26CF06AF830B99DF80F30F355013698
:1028E000402EF2D13446012322461449144885F87B
:1028F00025306EF01BFB80B10B4B0E49002483F892
:102900002540202304930F4B009304AA2346322032
:10291000059427F08DFD00E00446204601E04FF0CD
:10292000FF300DB0BDE8F083044D0020847101201C
:10293000184D002054320C0065160400C44C0020D1
:10294000F0330C0003330C00B4320C00014B58611F
:10295000704700BFB84D0020014B5869704700BF59
:10296000B84D00202DE9F04106468CB0042900F254
:10297000CC80DFE801F085390C2C0300644B1A6B26
:10298000002A00F0C280FFF7E7FF9047BDE0604CEF
:102990000025012704F1140084F8247084F82C50D9
:1029A000A56284F825506CF022F8201D6CF01FF809
:1029B0008022584930466EF0DBFA20230493564BB0
:1029C000009305952B4604AA5449384655E05049D2
:1029D000002381F824302022C86904920A6A0593F2
:1029E000121A01924E4A13E0494A92F82410002428
:1029F0008DF80F4001F0FF03174681B982F82530AA
:102A000020210491D169126A0593521A0192454A14
:102A10000092424904AA012027F00AFD75E0DFF880
:102A200008813B4E0DF10F0106F11400A5B26BF0C9
:102A3000BCFF40B99DF80F3004F808300134402C39
:102A4000EFD1254603E015B986F825505DE0012356
:102A50002A463549354887F825306EF067FA002850
:102A600053D02B4A2D49002382F82530202204928E
:102A70002F4A0092059304AA322027F0D9FC44E0A3
:102A8000234D012785F82C706EF06FFA2023A86281
:102A90000493AB6A01930024264B009304AA2346B7
:102AA0001E490594384627F0C3FCE9682B69AA6AD9
:102AB00013442A895B1A934227D8DFF85880AB6AFF
:102AC0001348A34218D918F8041004306BF05BFFC8
:102AD00080B1202300270493174B009304AA0F49C9
:102AE00005973C203B4627F0A3FC144A39460A20B0
:102AF00027F0F0F80134E2E7002380F82C30802240
:102B00008362044930466EF033FA0CB0BDE8F081C0
:102B1000044D0020384D00201C330C0054320C00B2
:102B200033330C0026330C00C44C0020F0330C006F
:102B300003330C0041330C004D330C0065160400C8
:102B4000034AD0681369926A1344181A704700BF89
:102B5000044D0020F0B52B4C94F82C308DB0002B98
:102B60002ED0E1682269A36A134422895B1A93423A
:102B700026D8254F0025A36A2248AB4217D9795D94
:102B800004306BF000FF80B12023002604931F4B1C
:102B9000009304AA1E4905963C20334627F048FCC2
:102BA0001C4A31460A2027F095F80135E3E7002357
:102BB00080F82C3080228362134917486EF0D8F9D0
:102BC000E268236900259A428DF80F5015D00DF167
:102BD0000F0112486BF0E9FE78B120230493104BEB
:102BE000009304AA0A4905953C202B4627F020FCB7
:102BF000084A29460A2027F06DF89DF80F000DB00D
:102C0000F0BD00BF044D0020384D00204D330C00B6
:102C100054320C0065160400F0330C00084D0020FF
:102C2000A3330C0013B502AA0024014602F8014D9B
:102C300004486BF0CBFE10B99DF8070000E0204679
:102C400002B010BD084D002001486BF0D0BE00BF9F
:102C5000184D0020034AD169108B136A01305B1AAA
:102C6000C01A7047044D0020014B1863704700BF25
:102C7000044D002013B5104C13462278BAB9012236
:102C8000227000940A4601460C486BF03AF948B9A4
:102C90002378012BFCD0084B1878003018BF012096
:102CA000404201E04FF0FF300023237001E04FF07D
:102CB000FF3002B010BD00BF3C4E00200442002097
:102CC00010B543688EB0044613B320230693002347
:102CD0000793114B1BB1AFF30080014600E00F4991
:102CE00020780F4A0F4B012808BF1346226904922F
:102CF000A2680392019362680B4B0292009306AAAA
:102D00000023322027F094FB636902221A7001E04D
:102D1000426913700EB010BD000000001C340C009E
:102D2000B8870D0020340C0026340C0030B58DB06F
:102D30000BF0DAF800221F491F48204D6BF0D8F83D
:102D4000202304930023044605931DB1AFF30080B4
:102D5000014600E01A49184B5A68126803921A6932
:102D60000292DB680193174B009304AA0023012011
:102D700027F05EFB20230493002305931DB1AFF3DE
:102D80000080014600E00E490F4A104B002C18BF8E
:102D9000134601930E4B009304AA0023012027F051
:102DA00047FB0BF0C9F8201C18BF012040420DB0B2
:102DB00030BD00BF7C5E0D0004420020000000001A
:102DC0001C340C005B340C0014330C0032070D0073
:102DD00084340C0073B504460D4616460BF084F897
:102DE000064B00933246064B294620460AF0FDFD6D
:102DF00004460BF0A1F8204602B070BDDDD90300F7
:102E0000752C03002DE9F041164C074688460BF05F
:102E10006BF82378254603F0FF06E3B9012327F476
:102E20007F6123704246234621F00F010E486BF06C
:102E3000A0F818B126706FF001040EE02A78094B53
:102E4000012AFBD01A7802F0FF0432B100221A7076
:102E50006FF0020401E04FF0FF340BF06DF82046F4
:102E6000BDE8F0813C4E00200442002070B50546CC
:102E70000C4616460BF038F832462946204685F0B7
:102E800098FD0BF059F8002070BD000010B1024B06
:102E90001B6803600148704750320C0074C00B007F
:102EA000BFF34F8F0549064BCA6802F4E062134333
:102EB000CB60BFF34F8F00BFFDE700BF00ED00E028
:102EC0000400FA0534DF704735DF704733DF7047A1
:102ED00070B5EFF3108572B60D4A9468012394B96A
:102EE00093600C4B0C49D3F88060314011600A4963
:102EF000C3F88010D3F8841051604FF0FF32C3F84C
:102F00008420047000E0037005B962B6002070BD33
:102F10008471012000E100E0FC06FFBD18DF70476E
:102F200013DF704700F1804000F5C040002382B0FD
:102F3000036003680193019B02B0704710B50368FA
:102F40002F2B8AB0044616D9202302930023039323
:102F50000E4B1BB1AFF30080014600E00C490D4B56
:102F6000009302AA3C20002327F062FA0A4A0021BB
:102F70000A2026F0AFFE23681F2B85BF074803F009
:102F80001F034FF0A04023600AB010BD00000000F6
:102F90001C340C009C340C00651604000003005027
:102FA00008B56EF0CBF8BDE808401AF03FBC000051
:102FB00073B5144B5B68C3F3080304460E46EBB9C4
:102FC00002AD042245F8043D40F2DA6029460BF0D8
:102FD00078FAA8B9019B23420CBF01220022B24219
:102FE0000ED016B123EA040400E01C43042240F290
:102FF000DA61284601940BF097FA01E04FF0FF30B8
:1030000002B070BD00ED00E000B58DB00AF080FCAC
:10301000002108460AF0AFFE0CA8002400F8254D58
:10302000FFF756FF2A4A136823F00103136000F0EC
:1030300045FD68F0DFFB274BC3F800450BF0CAF8ED
:10304000254B4FF00042C3F808234FF4BE70FFF742
:1030500069FF00F013FE90F8813090F8802003F0B3
:103060001F030CA843EA421340F8243DFFF766FF14
:10307000039B1A4A03F5E07340F82320184BC3F86A
:10308000004503F5A043C3F8004503F58053C3F89A
:10309000004503F53043C3F80045FFF717FFA8B11B
:1030A000202304930F4B05941BB1AFF3008001461E
:1030B00000E00D490D4B009304AA3C20002327F0AB
:1030C000B7F90B4A00210A2026F004FEFEE700BFF4
:1030D00010E000E000300140006000400400020009
:1030E00000C00140000000001C340C00C0340C0083
:1030F000651604001EF0040F0CBFEFF30880EFF319
:1031000009808169004A10472932030000B58FB059
:10311000039004910592039B049B059B2023069337
:1031200000230793094B1BB1AFF30080014600E079
:103130000749084B009306AA3C20002327F078F9A2
:10314000054A0021012026F0C5FDFEE70000000031
:103150001C340C00F6340C006516040000B58BB06E
:103160002023029300230393094B1BB1AFF300808C
:10317000014600E00749084B009302AA3C200023C7
:1031800027F056F9054A0021012026F0A3FDFEE7AD
:10319000000000001C340C00F6340C00651604001E
:1031A00000B58BB02023029300230393094B1BB17E
:1031B000AFF30080014600E00749084B009302AAE4
:1031C0003C20002327F034F9054A0021042026F092
:1031D00081FDFEE7000000001C340C000A350C00E5
:1031E0006516040000B58BB02023029300230393DF
:1031F000094B1BB1AFF30080014600E00749084BC3
:10320000009302AA3C20002327F012F9054A00216E
:10321000052026F05FFDFEE7000000001C340C00D6
:1032200013350C006516040000B593B003680293D3
:103230004368039383680493C36805930369069303
:103240004369079383690893C36909930E4B9B6A8B
:1032500013F0007301D0FFF7C5FF0B930B4B202237
:103260000A921BB1AFF30080014600E00849094B08
:1032700000930AAA3C20002327F0DAF8064A00212E
:10328000012026F027FDFEE700ED00E00000000031
:103290001C340C00F6340C0065160400014B024A85
:1032A000DA63704700400020A12F030010B54FF0F3
:1032B00000531A4A1A604FF0FF325A60184B8EB012
:1032C00000249C601022214602A885F098FB02236E
:1032D00002A80293FFF722FEA8B120230693114B08
:1032E00007941BB1AFF30080014600E00E490F4B7D
:1032F000009306AA3C20002327F09AF80C4A0021EC
:103300000A2026F0E7FC0548FFF70AFE6BF038F9C3
:103310006BF0B4F90028FBD00EB010BD00400020C7
:1033200000ED00E0000000001C340C0090320C00A6
:10333000651604001FB504200DF004FF184B194951
:1033400001221A70184B194A1846D21A85F031FB1F
:10335000174A90602CF036FC002004F09DFBFFF72C
:10336000A5FF0EF00FFA0DF08BFA2CF009FD6FF0AF
:103370007F4026F0BDFBE72026F020FC4FF44421DF
:1033800003220E238DE80E0000224FF440334FF04D
:10339000915110462CF0B4FD05B05DF804FB00BF60
:1033A00074B500200000030000400020004200200F
:1033B00000ED00E008B50AF0F3F908B1FFF770FD81
:1033C00008BD38B50546002000F06CFD044601201C
:1033D00000F068FD854204D9AC4234BF00200120D2
:1033E00038BD012038BD000008B5024B5860996017
:1033F000FFF756FD80F3032008B5074B6FF0550229
:103400001A735A732CF0D8FC044B64225A600022C1
:103410009A60FFF745FD00BFC0F3032080F303204F
:1034200008B5044B45F6FE206E21002283E8070014
:10343000FFF736FD80F3032008B50B4C50B14FF673
:10344000FF736362094B4FF0FF321A725A722CF00D
:10345000B3FC02E04EF6FA53236078236360002346
:10346000A360FFF71DFD00BF80F30320C0F303201E
:1034700008B518B9CB0701D4FFF7C6FD6FF0770088
:1034800008BD000007B5154A526901920132034692
:1034900002D101A8FFF716FD581E052819D8DFE84C
:1034A00000F00306090C13130198012808E00198A5
:1034B000042805E00198022802E00198B0F5803F59
:1034C00014BF0020012005E00198B0FA80F0400907
:1034D00000E0002003B05DF804FB00BFC0F3032050
:1034E00010B1044B1B68036011B1024B5B680B60A9
:1034F00000207047444E002000222CF06FBC704723
:1035000010B5064B1A681C4632B14FF0FF312068E7
:1035100040F026FD0028F8D010BD00BF404E00202E
:10352000024B186808B140F09EBB7047404E002027
:103530001E4B10B501241C70FFF73CFF0220FFF763
:10354000A1FF1B4940B11B4B5A680A609A684A6048
:1035500000225A609A6021E00320FFF793FF08B130
:103560003C2318E00420FFF78DFF08B11E2312E072
:103570000520FFF787FF08B128230CE00620FFF79E
:1035800081FF08B1322306E02046FFF77BFF08B138
:10359000142300E00A230B6000234B604FF0FF3040
:1035A000FFF792FCBDE810401AF0F8BA3D4E00203B
:1035B000444E002080F30320FFF7BABF07B5042074
:1035C00040F034FB074B08491860084B0193022375
:1035D00000934FF4C0620023054840F0B0FE40F075
:1035E0006DFFFEE7404E002043350C004C4E00209E
:1035F000B9350300042807B50DD006280DD00328DF
:103600000FD102A84B4200F8013D012240F6A13142
:103610000AF08AFF07E0012000E00220FFF7C8FC63
:1036200001E04FF0FF3003B05DF804FB032807B55D
:1036300017D3042817D9062813D10D4B5B68C3F3A1
:10364000080373B902A9042241F8043D40F2DA608C
:103650000AF037FF28B9019880F00200C0F340005B
:1036600002E0002000E0012003B05DF804FB00BF91
:1036700000ED00E0013809289CBF024B43F8201000
:10368000704700BF80F30320013809289ABF034B1D
:1036900053F820004FF0FF30704700BF80F3032045
:1036A00010B58AB00446684685F0B2F9089B63609D
:1036B00023880F2B17D90D480D49132BA0EB0101BF
:1036C000E16010D9009A2261172B0CD9059A62612A
:1036D0001B2B08D9074A1F2BA2EB0002A26102D9BB
:1036E00004F0E4FEE06100200AB010BD00E8032011
:1036F000B872012000E8032020B1012805D1044B55
:10370000987C7047024B988870470020704700BF34
:10371000C0F3032072B600207047000010B50446C5
:1037200030B9DC2A04D1044885F043F9204610BDA5
:103730004FF0FF3010BD00BF00F0032038B50D463C
:10374000044658B9DB2A09D906490A88DC2A05D17A
:103750001A60284685F02DF9204638BD4FF0FF301D
:1037600038BD00BF00F00320034B1B781BB1034B97
:10377000187865F081BF7047514E0020504E0020F0
:1037800008B5054B588B0DF070FE012303FA00F0CD
:10379000013880B208BD00BF1842002038B5182398
:1037A0000C4A58430C46135C012B02EB00050FD169
:1037B0002B79D9070CD5FFF7E3FF2A796B8892079D
:1037C0004CBF011B21461846BDE838400DF038BFFC
:1037D00038BD00BF1842002070B50D4606460146B0
:1037E00001201446FFF7DAFF29460220FFF7D6FF33
:1037F00021460320FFF7D2FF31460520FFF7CEFF19
:1038000029460620FFF7CAFF21460720BDE8704081
:10381000FFF7C4BF70B5184D0646FFF7B1FF2B7F09
:1038200013F0020F0446688B04D00DF019FE201A25
:1038300080B201E00DF014FE308095F83430688ECF
:1038400013F0020F04D00DF00BFE201A80B201E03D
:103850000DF006FE708095F84C30B5F84A0013F074
:10386000020F04D00DF0FCFD201A80B201E00DF033
:10387000F7FDB08070BD00BF18420020064B1A79DA
:1038800010B9910704D501E0920701D4012100E0AD
:10389000002158880DF0F9BB1842002010B5064BE6
:1038A0005C8820460DF01EFCB0FA80F149092046E4
:1038B000BDE810400DF0E9BB1842002038B51823D0
:1038C0000A4A58431518145C012C0DD1214668880A
:1038D0000DF0CCFB29796888C1F3400101B1214684
:1038E000BDE838400DF0D1BB38BD00BF1842002004
:1038F00010B503682F2B8AB0044616D920230293F3
:10390000002303930E4B1BB1AFF30080014600E090
:103910000C490D4B009302AA3C20002326F088FDA1
:103920000A4A00210A2026F0D5F923681F2B85BFFB
:10393000074803F01F034FF0A04023600AB010BDFA
:10394000000000001C340C009C340C0065160400C0
:10395000000300500B4611460246184666F05EBC56
:103960002DE9F84390460446894609F0D1FFB8F1A5
:10397000000F0CBF4FF480574FF480370026B4FB84
:10398000F7F47C43B1450CD02146404666F0EAFC92
:10399000054638B966F0E8FB0028FBD13C44013607
:1039A000F0E7002509F0E8FF2846BDE8F8830000AD
:1039B00030B597B016A8112440F8444DFFF798FF92
:1039C000059B394D03F5E073032240F8232016A828
:1039D00040F8484DFFF78CFF049A01239340C0F84C
:1039E000083516A8152340F8403DFFF781FF069BD8
:1039F00003F5E073042240F8232009F089FF0FCD7E
:103A000009AC0FC400222B682360114609A866F098
:103A1000DBF9002840D120230E93244B0F901BB1DB
:103A2000AFF30080014600E02149224B224C009375
:103A30000EAA0023012026F0FBFC2068079000223C
:103A4000A388ADF82030114607A866F0A1FA024617
:103A500030BB54F8060F0E9040238DF80F301146FE
:103A6000A388ADF83C300EA866F092FA024698B9E9
:103A7000992301460EA88DF8383066F089FA02467F
:103A800050B901238DF838300DF10F0102230EA833
:103A90008DF8393066F07CFA09F06EFF002001E005
:103AA0004FF0FF3017B030BD04BC0B000000000029
:103AB0001C340C004E350C0018BC0B0030B587B020
:103AC00009F026FF1E4B0022186804909B88ADF871
:103AD0001430114604A866F05BFA044660BB66F039
:103AE00061FB06A8112540F8105DFFF701FF029B5E
:103AF00003F5E073032240F8232006A840F8145D84
:103B0000FFF7F6FE019A01239340C0F8083506A896
:103B1000152340F80C3DFFF7EBFE039B03F5E07324
:103B2000042240F82320074B4FF40072C3F884218D
:103B300009F022FF204601E04FF0FF3007B030BD12
:103B400024BC0B0000E100E073B504460D461646A8
:103B500009F0DEFE084B00932046084B324629460A
:103B600009F043FF044666F0FFFA0028FBD109F094
:103B700003FF204602B070BDDDD9030055390300B4
:103B80002DE9F3470F4607F1030929F0030916460B
:103B9000C7EB0904054609F0BBFEB44294BF341BD1
:103BA000B41B34F003041BD025F003084246214621
:103BB000484666F085FB824660BB66F0D5FA002871
:103BC000FBD14F4501D1454507D0C8EB0501641A2B
:103BD00022464944384684F0F7FE25442744361BE4
:103BE000BEB1A91925F003040331091B224621F0B7
:103BF0000301684666F064FB824658B966F0B4FA81
:103C00000028FBD1291B32466944384684F0D1FE96
:103C100000E0B24609F0B0FE504602B0BDE8F087C1
:103C20000022FFF79DBE0128F8B506460C46174650
:103C30001D461DD1CB18B3F5007F1CD809F068FED6
:103C400000223146B12066F079FA30B920462A4682
:103C50003946FFF795FF044601E06FF002040022A9
:103C60000121C12066F06AFA09F086FE2046F8BDFF
:103C70004FF0FF30F8BD6FF00100F8BD004870470D
:103C8000D8420020232838B50D460AD8054B03EB4F
:103C90000014E3788B4203D0062B01D10DF0AEFB6C
:103CA000E57038BDD84200201FB5002303930129D9
:103CB0004FF0050302468DF80C30094C00FA03F171
:103CC00008D16318605A9B7803A9009105490AF04E
:103CD00005FA02E0605A0AF07BFA04B010BD00BF9A
:103CE00018450020293D030010B50D4B03EB401291
:103CF00000219180DA783AB993F8233003F0FF027B
:103D000013B9084B1A705A60C4B22046002119F04A
:103D10002DFD20460121BDE81040FFF7C5BF00BFC3
:103D200018450020544E0020084BC0B203EB40134E
:103D300010B5002101249980DC70FFF7B5FF044B1A
:103D40001A7812B90A221C705A6010BD184500205A
:103D5000544E002008B54001024B185A0DF0C2F92C
:103D6000C0B208BD1845002038B52E4B1A78002A7D
:103D700056D05A68002A53D05A68013A5A60586897
:103D800000284DD10A22284C5A60E3788BB1FFF706
:103D9000E1FF70B9A3889BB233B9A3880A339BB201
:103DA000A380012119F0E2FCA3880A339BB2A3800F
:103DB00006E0E37823B11C4B0020D870FFF794FF96
:103DC000238C194DFF2B1CD095F82330CBB101204B
:103DD000FFF7C0FF95F822305A1E534253419842D4
:103DE0000FD1AB8C9BB23BB9AB8C0A339BB2012198
:103DF000AB84084619F0BAFCA38C0A339BB2A384A7
:103E000038BD228C084BFF2A0AD093F823203AB100
:103E1000002283F823200120BDE83840FFF764BF6B
:103E200038BD00BF544E0020184500202DE9F04158
:103E30001A4C22780746884602F0FF030AB923701D
:103E40006360174D7E01AB19A85B9B78012B0CBFFB
:103E5000032102210DF00AF9B8F1010F03D1414607
:103E60003846FFF721FFAB5BFF2B05EB060812D0AE
:103E70003846FFF76FFF98F802305A1E53425341FD
:103E8000984208D1012288F803202178034B11B908
:103E90001A700A225A60BDE8F08100BF544E00201B
:103EA00018450020024B03EB4010808880B2704719
:103EB00018450020EFF31180402383F311887047E9
:103EC00080F31188704740F03DBB08B56DF022F9D2
:103ED000012008BD6DF028B910B5044650B9134B48
:103EE00013491448D32285F00BFA204684F0E4FBF2
:103EF00084F008FB04203FF099FE0F4A206038B997
:103F0000B2F81A310133A2F81A314FF0FF3010BD68
:103F1000B2F81631B2F8181101339BB29942A2F8E7
:103F2000163138BFA2F81831002010BDE0350C0062
:103F3000FD350C000B360C00D861012008B508488F
:103F4000FFF7CAFF50B1074B074908487B2285F0AD
:103F5000D7F9002084F0B0FB84F0D4FA08BD00BF8C
:103F6000644E0020E0350C0033360C000B360C009C
:103F700010B5044618B9104B1049E22204E0046859
:103F800054B90D4B0E49E3220E4885F0B9F920468D
:103F900084F092FB84F0B6FA4FF0FF3120463FF0F8
:103FA000DFFF012807D0044B07490648E62285F0C9
:103FB000A7F90020ECE710BDE0350C00FD350C0042
:103FC0005A360C000B360C006D360C0010B504464A
:103FD00018B90F4B0F49F02204E0046854B90C4B98
:103FE0000D49F1220D4885F08BF9204684F064FBE1
:103FF00084F088FA20463FF036FE012807D0044BB3
:1040000007490648F42285F07BF90020EEE710BD51
:10401000E0350C00FD350C005A360C000B360C0058
:1040200086360C0038B50D46044640B9214B22496E
:1040300022484FF4857285F063F9204609E0012992
:104040000BD91C4B1E494FF486721C4885F058F959
:10405000002084F031FB84F055FA03220021012076
:104060003FF038FD174A206038B9B2F814310133F7
:10407000A2F814314FF0FF3038BDB2F81031B2F869
:10408000121101339BB2994238BFA2F81231012DAF
:10409000A2F810310CD100231A46194620683FF0CF
:1040A0003DFD012804D0034B074940F21712CCE72D
:1040B000002038BDE0350C00E8360C000B360C0053
:1040C0009F360C00D8610120C2360C0010B50446A2
:1040D00020B9124B124940F2251205E004685CB980
:1040E0000E4B10494FF493720F4885F009F92046A2
:1040F00084F0E2FA84F006FA00231A4619462046B4
:104100003FF00CFD012808D9044B0849064840F24D
:104110002B1285F0F5F80020EAE710BDE0350C0021
:10412000E8360C00E3360C000B360C00F4360C00BD
:1041300038B50D46044620B91B4B1C494FF49B7201
:1041400005E004685CB9184B194940F23712194868
:1041500085F0D6F8204684F0AFFA84F0D3F979B927
:104160004FF0FF3120463FF061FE012817D00E4B83
:10417000114910484FF49E7285F0C2F82846EAE7CC
:1041800020463FF053FE60B1012808D0064B0A4993
:1041900008484FF4A27285F0B3F80020DBE7012055
:1041A00038BD4FF0FF3038BDE0350C00E8360C006C
:1041B000E3360C000B360C0016370C0038B50446FD
:1041C00040B9114B114912484FF4A87285F098F884
:1041D000204609E005685DB90B4B0E490C4840F2DA
:1041E000511285F08DF8284684F066FA84F08AF939
:1041F000094AB2F81031013BA2F8103100683FF0D3
:10420000C5FE0023236038BDE0350C00E8360C0005
:104210000B360C00E3360C00D861012010B50B46BC
:10422000044640B91A4B1B491B4840F25B1285F00B
:1042300067F8204609E000290BDC154B17491648A2
:104240004FF4AE7285F05CF8002084F035FA84F00B
:1042500059F90022042118463FF03CFC104A206026
:1042600038B9B2F820310133A2F820314FF0FF30D5
:1042700010BDB2F81C31B2F81E1101339BB2994245
:10428000A2F81C3138BFA2F81E31002010BD00BFBB
:10429000E0350C002E370C000B360C003B370C00C1
:1042A000D861012013B50446019120B9184B194972
:1042B0004FF4BD7205E004685CB9154B164940F235
:1042C0007B12164885F01CF8204684F0F5F984F03E
:1042D00019F900231A4601A920463FF01FFC0128C6
:1042E00012D040B10A4B0E490C4840F2811285F0C1
:1042F00007F80020E9E70B4AB2F820310133A2F8B1
:1043000020314FF0FF3000E0002002B010BD00BFB0
:10431000E0350C002E370C0044370C000B360C0037
:1043200067370C00D861012073B50C461646054668
:1043300020B91F4B1F4940F2A11205E005685DB985
:104340001B4B1D494FF4D1721C4884F0D9FF2846FD
:1043500084F0B2F984F0D6F801B901AC86B94FF017
:10436000FF32214628463FF0E5FC01281DD0104BC6
:104370001349124840F2AB1284F0C2FF3046E7E71F
:104380003246214628463FF0D5FC18B920604FF050
:10439000FF300BE0012808D0054B094907484FF4CE
:1043A000DA7284F0ADFF0020D2E7012002B070BDC8
:1043B000E0350C002E370C0044370C000B360C0097
:1043C0007B370C0037B50C46054620B9154B16490E
:1043D0004FF4E17205E005685DB9124B134940F2F4
:1043E000C312134884F08CFF284684F065F984F0EA
:1043F00089F801B901AC0022214628463FF09AFC19
:1044000018B920604FF0FF300AE0012808D0054BB2
:10441000084907484FF4E77284F072FF0020E4E790
:1044200003B030BDE0350C002E370C0044370C00D3
:104430000B360C007B370C0010B5044620B90E4B30
:104440000E4940F2D91205E004685CB90A4B0C49E8
:104450004FF4ED720B4884F053FF204684F02CF9A2
:1044600084F050F820463FF091FD074AB2F81C3125
:10447000013BA2F81C3110BDE0350C002E370C00BA
:1044800044370C000B360C00D86101201FB50446E0
:104490000846191E04DC104B10494FF4FA720FE065
:1044A00003AB0193069B00931346C1F38F02214691
:1044B0003FF045FF01280BD0074B09494FF4FF722D
:1044C000084884F01DFF002084F0F6F884F01AF804
:1044D000039804B010BD00BFE0350C008D370C0010
:1044E0009F370C000B360C0010B5074C0748FFF740
:1044F0003FFD23781BB940F067FA054B186023781D
:104500000133237010BD00BF684E0020644E0020B0
:104510005C4E0020054A1378013BDBB213700BB9E7
:10452000034A13600348FFF751BD00BF684E0020E7
:104530005C4E0020644E002008B540F045FA014B67
:10454000186008BD604E002008B56CF0E3FD6CF00B
:10455000EBFD0C4B1B68A3B140F036FA0A4B1B680D
:10456000834202D1094B1B785BB9094B09490A48C0
:1045700040F27B2284F0C4FE002084F09DF883F09A
:10458000C1FF08BD604E00205C4E0020684E002038
:10459000E0350C00B4370C000B360C0010B5094B9D
:1045A0005B68C3F30803044633B901F0BCFF20463F
:1045B00002F0B7FA012302E001F0B5FF00232370F7
:1045C00010BD00BF00ED00E010B50378044613B144
:1045D00002F0B4FA2046BDE8104001F09FBF70B46D
:1045E000067803460D46144626B1802A02D170BCD7
:1045F00002F0AFBA00221A7029462246184670BC53
:1046000001F094BFFFF7EBBF10B404781CB15DF864
:10461000044B02F0B6BA5DF8044B02F043BA2DE940
:10462000F04F85B09846130781460F4616460E9DFB
:104630000F9C5CD119B92A460DF1100B29E06B1EB5
:104640004DE018685968F446ACE803000833534558
:10465000E646F6D1234600214846FFF7D5FF631E04
:1046600008F1FF3104F10F0013F801EF11F8012FE9
:1046700083428EEA02021A70F6D142463B4603CBD1
:104680005B45106051601F4602F10802F6D15246A8
:104690001034B31ADD4205D01346EE4602F1100A7B
:1046A0006F46CEE7002024E013F801EF10F8012F49
:1046B000AB428EEA020201F8012FF5D123462246D1
:1046C00039464846FFF7A0FF434604F1100254F86C
:1046D000041B43F8041B9442F9D1103E2B46002ED4
:1046E000E0D008F1FF30611E03F11005DCE76FF048
:1046F000210005B0BDE8F08F70B500EB81024E08D7
:104700000023B342A2F1040209D050F823401568F7
:1047100024BA2DBA40F8235014600133F1E7CA07D8
:1047200041BF013350F8232012BA40F8232070BD56
:10473000036B2BB1C36B002B0CBF02200120704711
:10474000184670477FB50C4605460C3401A816463E
:104750006FF0CCF9291D224601A86FF0B5FD054682
:1047600068B9014620466FF0DEFC01A900280CBFA5
:10477000002206F0010220466FF068FA054601A803
:104780006FF0BBF9284604B070BD000038B54B6E21
:1047900004460D462BB90A1DBDE83840014670F0AD
:1047A0001DB80368002B07DB20466FF0CAFAAB6D1B
:1047B000B0EB430F07D904E000216FF0B4FC0028F0
:1047C000F2D0124838BD6B6E20469847E8B90435E0
:1047D0002368002B12DA002120466FF0A4FC68B198
:1047E0002A46214620466FF04EFD0028F0D00CE00E
:1047F0002A46214620466FF006FD30B9294620465C
:104800006FF04CFC0028F3DA002038BD80B0FFFFC9
:104810002DE9F04F8DB0064603AD684689469046B7
:104820006FF064F928466FF061F906A86FF05EF941
:1048300009A86FF05BF9B369002B69D108F1180280
:10484000114628466FF08EFD0446002840F006828F
:1048500031462846FFF79AFF0446002840F0FE81C3
:104860002A46414606A86FF00EFD0446002840F097
:10487000F581371D394606A86FF010FC002808DBCB
:1048800006A93A4608466FF0BEFC04460028F1D05F
:10489000E4E12A46414609A86FF016FD04460028C7
:1048A00040F0DC81099B002B09DB09AA06A92846F8
:1048B0006FF058FD0446002840F0D0810BE0002145
:1048C00009A86FF030FC0028EFD009A93A46084645
:1048D0006FF0D9FCE2E731462846FFF757FF044660
:1048E000002840F0BB810322294668466FF0A9FDED
:1048F0000446002840F0B281394668466FF0CEFB8E
:1049000000282DDB3A46694668466FF07CFCEFE7ED
:104910004246414628466FF025FD0446002840F0F7
:104920009D8131462846FFF731FF0446002840F0BC
:1049300095810322294668466FF083FD04460028CE
:1049400040F08C81371D394668466FF0A7FB002880
:1049500012DA06F1100A002150466FF0E4FBA0B90C
:1049600008F10C0A5246514606A86FF0FBFC0446BB
:10497000002840F0738151E03A46694668466FF07E
:1049800042FC04460028DED068E108F11802114616
:1049900028466FF0E7FC0446002840F05F8131466E
:1049A0002846FFF7F3FE0446002840F057812A46C8
:1049B000294606A86FF0D6FC0446002840F04E8138
:1049C000314606A8FFF7E2FE0446002840F0468183
:1049D000524606A928466FF0C5FC0446002840F060
:1049E0003D8131462846FFF7D1FE0446002840F0BD
:1049F00035812A46694668466FF045FC0446002822
:104A000040F02C81394668466FF048FB0028A7DB50
:104A10003A46694668466FF0F6FBEFE7314606A86E
:104A2000FFF7B4FE0446002840F01881012106A8D3
:104A30006FF005FA0446002840F01081371D394612
:104A400006A86FF02BFB002808DB06A93A460846AB
:104A50006FF0D9FB04460028F1D0FFE006AA4146DA
:104A600028466FF07FFC0446002840F0F78031466E
:104A70002846FFF78BFE0446002840F0EF80012116
:104A800028466FF0DCF90446002840F0E7803946FC
:104A900028466FF003FB002805DB3A4629462846E6
:104AA0006FF0B1FBEFE706AA114609A86FF05AFCB8
:104AB0000446002840F0D280314609A8FFF766FE80
:104AC0000446002840F0CA80012109A86FF0B7F918
:104AD0000446002840F0C280394609A86FF0DEFA8B
:104AE000002805DB09A93A4608466FF08CFBEFE782
:104AF0006A46694606A86FF035FC0446002840F077
:104B0000AD80314606A8FFF741FE0446002840F07C
:104B1000A58006A92A4608466FF0D6FB0446002861
:104B200040F09C80069B002B05DB06A92A46084620
:104B30006FF0CAFB18E0002106A86FF0F4FA002815
:104B4000F3D006A93A4608466FF09DFBE6E7069BC0
:104B5000002B0DDA002106A86FF0E5FA40B106A996
:104B60003A4608466FF08FFB04460028EFD075E008
:104B700006AA294628466FF0A7FB0CE0039B002BF2
:104B80000DDA002128466FF0CEFA40B13A462946A8
:104B900028466FF078FB04460028EFD05EE06A46B6
:104BA000294628466FF0DEFB0446002856D13146E0
:104BB0002846FFF7EBFD044600284FD109AA2946F5
:104BC00028466FF081FB0446002847D1AB46039B83
:104BD000002B09DB08F11802514609A86FF0C2FB4F
:104BE000044600283AD10EE0002158466FF09BFAA7
:104BF0000028EFD03A46594658466FF044FB044629
:104C00000028E4D02AE0314609A8FFF7BFFD04469A
:104C100020BB012109A86FF012F90446F0B939460A
:104C200009A86FF03BFA002805DB09A93A460846B7
:104C30006FF0E9FAF1E706A948466EF0DBFF04469B
:104C400060B903A909F10C006EF0D4FF044628B93D
:104C500009A909F118006EF0CDFF044668466EF010
:104C60004CFF28466EF049FF06A86EF046FF09A8E3
:104C70006EF043FF20460DB0BDE8F08FF0B501F1B6
:104C8000180787B006460D46384600216FF04BFAEC
:104C900000284DD068466EF029FF03A86EF026FF6D
:104CA000321D3946684670F0DDF90446C8BB6A46D5
:104CB000694603A86FF056FB044690BB314603A833
:104CC000FFF764FD044660BB03AA294628466FF03F
:104CD00049FB044628BB31462846FFF757FD0446EA
:104CE000F8B90C3503AA294628466FF03BFB044669
:104CF000B8B931462846FFF749FD044688B96A46E7
:104D0000294628466FF02EFB044650B93146284606
:104D1000FFF73CFD044620B9012138466EF0CBFF79
:104D2000044668466EF0E9FE03A86EF0E6FE2046F3
:104D300007B0F0BD2DE9F047012A8AB007460D46BD
:104D4000914603D80968FFF799FFE8E00C21104667
:104D500083F0E4FB8046002800F0E08001A86EF0BC
:104D6000C5FE04A86EF0C2FE07A86EF0BFFE29685B
:104D7000404618316EF03EFF0446002840F0B780F0
:104D800008F10C064FF0010A55F82A20A6F10C0193
:104D9000183230466FF0E6FA0446002840F0A7804B
:104DA00039463046FFF7F2FC0446002840F09F8069
:104DB0000AF1010AD14506F10C06E5D10C2606FBE5
:104DC00009F6A6F10C013A1D414401A870F04AF918
:104DD0000446002840F08B80183E09F1FF3A05EBAD
:104DE00089054644BAF1000F0ED101A904A86EF05E
:104DF00001FF044600287AD104AA114607A86FF0E3
:104E0000B1FA0446F0B172E0324601A904A86FF08D
:104E1000A9FA044600286AD1394604A8FFF7B6FC6F
:104E20000446002863D155F8042C01A9183208461D
:104E30006FF098FA0446002859D1394601A8FFF7C7
:104E4000A5FCD6E7394607A8FFF7A0FC04460028D2
:104E50004DD155F8041C07AA08466FF083FA0446A2
:104E6000002844D1394655F8040CFFF78FFC04465E
:104E700000283CD155F8041C0C3107AA08466FF0F5
:104E800071FA044698BB55F8040C39460C30FFF70C
:104E90007DFC044658BB55F8041C0C3104AA084696
:104EA0006FF060FA044610BB55F8040C39460C301C
:104EB000FFF76CFC0446D0B9B96855F8040C6EF0E5
:104EC0005EFE044698B955F8040CB9680C306EF0D3
:104ED00056FE044658B955F8040D18306EF00DFE14
:104EE0000C3EBAF1000F02D00AF1FF3A7AE701A8AE
:104EF0006EF003FE04A86EF000FE07A86EF0FDFD44
:104F000000250C2606FB058001356EF0F6FDA9454F
:104F1000F8D1404683F036FD204600E001480AB053
:104F2000BDE8F08780B2FFFF2DE9F74F9DF83070A4
:104F300080460E469946C7F3450A02F10C05002447
:104F400001F10C0B4C4517D0E3B2CAEB03025342FC
:104F500053411A46A5F10C01304601936EF076FEDE
:104F600090B9019B29461A4658466EF06FFE0134EF
:104F700024350028E6D007E0FA093146404603B060
:104F8000BDE8F04FFFF7DEBB03B0BDE8F08F0000D7
:104F9000054B196829B9054A032010705170012288
:104FA0001A600248704700BF6C4E0020704E00200F
:104FB000054B1A781AB1824203D00C33F9E7104638
:104FC00070471846704700BFD8370C00054B1A7859
:104FD00022B15A88824203D00C33F8E7104670475A
:104FE00018467047D8370C0010B5044658B16EF01B
:104FF0007DFD04F10C006EF079FD04F11800BDE8B0
:1050000010406EF073BD10BD18B17C22002183F0FA
:10501000F6BC704710B5044658B1FFF7F5FF04F130
:105020007C006EF063FD04F18800BDE81040FFF7DE
:10503000DBBF10BD10B5044658B16EF05EFD04F143
:105040000C006EF05AFD04F11800BDE810406EF03F
:1050500054BD10BD70B5044668B3036E012B12D069
:1050600004306EF04AFD04F110006EF046FD04F1CC
:105070001C006EF042FD04F12800FFF7DBFF04F195
:105080004C006EF03AFD636F6BB100252426A36FD0
:10509000606F9D4205D206FB0500FFF7CBFF01358F
:1050A000F5E783F06FFC04F17C0300229C4202D000
:1050B00022700134FAE770BD10B5044658B1FFF70D
:1050C000C9FF04F17C006EF018FD04F18800BDE812
:1050D0001040FFF7AFBF10BD38B504460D466EF067
:1050E00089FD70B905F10C0104F10C006EF082FD30
:1050F00038B905F1180104F11800BDE838406EF028
:1051000079BD38BD097802F063B810B501210446B5
:105110006EF0D1FD60B9012104F10C006EF0CBFD01
:1051200030B9014604F11800BDE810406EF0C3BD6F
:1051300010BD00002DE9F04702F1180996B00546B0
:105140000E464846002190461F466EF0ECFF08B917
:10515000394608E03B6A53B1002107F118006EF0B0
:10516000E2FF20B941463046FFF7B6FFC6E13B6A91
:10517000F3B901A86EF0BAFC04A86EF0B7FC07A85A
:105180006EF0B4FC0AA86EF0B1FC0DA86EF0AEFC97
:1051900010A86EF0ABFC13A86EF0A8FC4A46494676
:1051A00001A86FF0DFF80446002840F0918108E084
:1051B000012107F118006EF0B6FF0028D9D0A048F1
:1051C0009CE1294601A8FFF7E1FA0446002840F0D7
:1051D0007F814A4601A904A86FF0C4F8044600285C
:1051E00040F07681294604A8FFF7D0FA044600284B
:1051F00040F06E8101A93A4608466FF0B3F80446C4
:10520000002840F06581294601A8FFF7BFFA04464F
:10521000002840F05D8104A907F10C0208466FF0F8
:10522000A1F80446002840F05381294604A8FFF75E
:10523000ADFA0446002840F04B8101A942460846D9
:105240006FF042F80446002840F042812F1D019B78
:10525000002B0CDB04A908F10C0A524608466FF03B
:1052600033F80446002840F033812F1D1CE0002154
:1052700001A86EF058FF0028ECD001A93A46084674
:105280006FF001F804460028E1D021E1002104A8D4
:105290006EF049FF58B104A93A4608466EF0F3FF94
:1052A0000446002840F01481049B002BEEDB002113
:1052B00001A86EF038FF014668B904A86EF033FF0C
:1052C00028B9424631462846FFF7A2FAFFE03046A9
:1052D000FFF71BFFFBE001AA494613A86FF042F855
:1052E0000446002840F0F480294613A8FFF74EFA40
:1052F0000446002840F0EC8001AA114607A86FF090
:1053000031F80446002840F0E380294607A8FFF75B
:105310003DFA0446002840F0DB8001AA07A90AA84C
:105320006FF020F80446002840F0D28029460AA8F1
:10533000FFF72CFA0446002840F0CA8007A942462D
:1053400008466FF00FF80446002840F0C180294657
:1053500007A8FFF71BFA0446002840F0B980022294
:1053600007A901A86FF06DF80446002840F0B0804E
:105370002F1D394601A86EF091FE002808DB01A917
:105380003A4608466EF03FFF04460028F1D09FE001
:1053900004AA11460DA86EF0E5FF0446002840F06F
:1053A000978029460DA8FFF7F1F90446002840F040
:1053B0008F800DA901AA08466EF086FF04460028DA
:1053C00040F086800D9B002B05DB0DA90AAA08463C
:1053D0006EF07AFF18E000210DA86EF0A4FE002800
:1053E000F3D00DA93A4608466EF04DFFE6E70D9B57
:1053F000002B0DDA00210DA86EF095FE40B10DA92D
:105400003A4608466EF03FFF04460028EFD05FE0C2
:1054100007A90DAA08466EF057FF0CE0079B002B6A
:1054200010DA002107A86EF07EFE58B107A93A46AF
:1054300008466EF028FF04460028EFD048E000BF81
:1054400080B0FFFF07A904AA08466EF08BFF044650
:1054500000283DD1294607A8FFF798F904460028FF
:1054600036D10AA9524608466EF07CFF044678BB46
:1054700029460AA8FFF78AF9044648BB0AAA07A9E1
:1054800010A86EF021FF044610BB109B002B06DB1A
:105490000DA930466EF0AEFB0446C8B90BE0002102
:1054A00010A86EF040FE0028F2D010A93A46084637
:1054B0006EF0E9FEE7E710A906F10C006EF09AFB2A
:1054C000044628B913A906F118006EF093FB0446B0
:1054D00001A86EF012FB04A86EF00FFB07A86EF097
:1054E0000CFB0AA86EF009FB0DA86EF006FB10A8D5
:1054F0006EF003FB13A86EF000FB204616B0BDE86B
:10550000F08700BF2DE9F04FE9B0054611A80E461F
:105510000A921C466EF0EAFA14A86EF0E7FA05F15A
:105520004C03002118460B936EF0E1FB012840F07C
:105530002A82EB6DB3F5C07F2CBF0523042305F150
:10554000340104F10C0003936EF0A8FD70B905F16D
:10555000280120466EF0A2FD00280CBF0123002385
:10556000059305D1039B0133039301E000230593C9
:10557000EB6D039A9A4228BF02220392013A0692E7
:10558000069901228A4007929DF81C200892039AEE
:10559000013B1344B3FBF2F30493059B2BB1D5F805
:1055A00074B0BBF1000F40F092802421079882F084
:1055B000B5FF8346002800F0DA812146FFF78CFD15
:1055C0000446002840F0E38181460127069B37FA14
:1055D00003F329D107EBC70879080BEB880801EB27
:1055E000C1010BEB81014046FFF776FD0446002820
:1055F00040F0CD818246049B53450BD04246414644
:105600002846FFF705F90446002840F0C0810AF15A
:10561000010AF0E75FFA89F326AA7F0042F82380A7
:10562000FFB209F10109D1E70DF198085FFA89F29B
:1056300041462846FFF77EFB0446002840F0A7813C
:1056400009900127CDF83C80069B37FA03F92FD14A
:1056500007EBC7030BEB83030D9348226FF0230383
:1056600012FB07387B43D8440E93099B4F4503EB4D
:10567000090A5FFA8AFA16D00E9A0D9BCDF830808F
:10568000424441462846FFF755FD09F10109A8F1BA
:1056900024080446002840F07A810F9B1A460C9B90
:1056A00042F82A30E1E77F00FFB2CDF824A0CBE733
:1056B000099A26A92846FFF73DFB0446002840F03A
:1056C0006681059B1BB1079BC5F874B0AB670021D1
:1056D0000A986EF00CFB11AF80460A9938466EF0BE
:1056E00089FA0446002840F052810A9A0B9914A8BE
:1056F0006EF0EAFD0446002840F0498118F1FF33BE
:1057000018BF01231A4614A9384606936EF09EFA74
:105710000446002840F03B81049B0DF198080146A7
:105720005A1C404683F06BF9049BA34216D04FF0FD
:105730000009A246514638466EF0D9FA14F80830EE
:1057400000FA09F01843049B04F808009A44039BEC
:1057500009F101094B45EDD80134E5E726AB4FF0DF
:10576000000C4FF0010E049A724503F101031DD3A2
:10577000197813F8014C81EA0C0000F0010787F05A
:10578000010714FB07F240B252B200EA020801EA34
:105790000C0148EA010C424044EAC7145FFA8CFC51
:1057A0001A7003F8014C0EF1010EDCE71DA8FFF79B
:1057B0001BFC049A26AB31469B5C00935A46089B1F
:1057C0002846FFF7B1FB0446002840F0AF8006F101
:1057D0001808012140466EF06EFA0446002840F099
:1057E000A580729B002B7AD0AB6D17AF0733DB0817
:1057F000384603936EF07AF91AA86EF077F94FF0F5
:105800000C0905F1040A739B729A039938466FF0EC
:10581000FAFA0346002856D1514638466EF03EFC4F
:10582000002804DB012138466EF059FBF1E7B9F19D
:10583000010952D0012138466EF075FC0028E2DDE6
:105840003A46414640466EF08DFD034600283AD167
:1058500029464046FEF79AFF0346A0BB3A46394622
:105860001AA86EF07FFD034668BB29461AA8FEF70A
:105870008DFF034638BB1AAA314630466EF072FDE2
:10588000034600BB29463046FEF780FF0346D0B9E9
:105890001AA93A4608466EF065FD034698B92946AE
:1058A0001AA8FEF773FF034668B906F10C071AAA97
:1058B000394638466EF056FD034620B9294638462B
:1058C000FEF764FF034617A803936EF016F91AA8B3
:1058D0006EF013F9039B13B125E0334B23E0049BD7
:1058E00068AA13441F466FF484731F440DF1970890
:1058F000B8451BD0324631462846FEF789FFA0B98D
:1059000017F8013900935A46089B1DA92846FFF74E
:105910000BFB50B91DAB324631462846FFF70AFC57
:105920000028E5D001E01C4600E004461DA8FFF772
:1059300081FB64BB069A31462846FEF703FF044606
:1059400028BB31462846FFF799F9059B04467BB9E9
:105950000025242707FB05B0FFF76CFB0135089AEB
:10596000EBB29A42F6D8584683F00CF800E00F4CA0
:1059700011A86EF0C2F814A86EF0BFF82CB1304632
:10598000FFF758FB01E00A480BE0204609E0059BC1
:10599000002BDDD011A86EF0B0F814A86EF0ADF8B1
:1059A000EDE769B0BDE8F08F00B3FFFF80B2FFFF05
:1059B00080B0FFFF08B5002118306EF0B4FBB0FADC
:1059C00080F0400908BD000038B504460D466EF071
:1059D00065FB68B905F10C0104F10C006EF05EFB8B
:1059E00030B905F1180104F118006EF057FB00B151
:1059F000004838BD80B0FFFF2DE9F843012A054675
:105A00000E4691469846089C099F3FD8002106F112
:105A100018006EF088FB48B917B91E48BDE8F88336
:105A200001232070C8F80030BDE8F883281D6EF00F
:105A3000A8F90546B9F1000F14D14200013297428E
:105A4000C8F80020E9D321460423024601F8013BAF
:105A500030466EF0D1F9D0B9691C2A46214406F1CE
:105A60000C000FE0431C9F42C8F80030D5D3002142
:105A700006F10C006EF03BF92146023001F8010BF3
:105A80002A463046BDE8F8436EF0B6B90248BDE894
:105A9000F88300BF00B1FFFF80B0FFFFF8B50C46F0
:105AA00015461F460BB91648F8BD137833B9012FB8
:105AB000F9D10846BDE8F840FFF727BB04306EF087
:105AC00060F92B78042B064618D142000132974228
:105AD000E9D10246691C20466EF059F978B9711C6B
